:020000040800F2
:100000005809002061020008352F0008DD2A000889
:1000100000000000000000000000000000000000E0
:100020000000000000000000000000007530000823
:100030000000000000000000372F000877300008A3
:100040007302000800000000730200087302000839
:10005000730200087302000873020008351A0008D2
:100060000000000073020008730200087302000819
:100070007302000873020008730200080000000009
:100080007302000800000000000000007302000876
:1000900000000000730200087302000873020008E9
:1000A000730200087302000873020008730200085C
:1000B00073020008000000000000000000000000C3
:1000C00000F002F800F0BDF80CA030C80838241881
:1000D0002D18A246671EAB4654465D46AC4201D180
:1000E00000F0AFF87E460F3E0FCCB64601263342F5
:1000F00000D0FB1AA246AB4633431847D03D000060
:10010000F03D0000103A02D378C878C1FAD85207FF
:1001100001D330C830C101D504680C6070470000BD
:100120000023002400250026103A01D378C1FBD813
:10013000520700D330C100D50B60704710B56E294F
:1001400002D100F057FA10BD702902D100F091FBE6
:1001500010BD662902D103F0E5FD10BD652902D16D
:1001600003F0E0FD10BD672902D103F0DBFD10BDF7
:10017000612902D103F0DEFD10BD03681B0A01D323
:1001800080231943692902D100F0FEF910BD6429CA
:1001900002D100F0F9F910BD752902D100F0F4F98F
:1001A00010BD6F2902D100F00FFB10BD782902D1DC
:1001B00000F04CFB10BDE92902D100F0ABFA10BDF4
:1001C000E42902D100F0A6FA10BDF52902D100F011
:1001D000A1FA10BDEF2902D100F002FB10BDF829F1
:1001E00002D100F041FB10BD0368DB0901D380237D
:1001F0001943632902D101F022F810BD732902D1FD
:1002000001F025F810BDE32902D101F02FF810BD4F
:10021000F32902D101F032F810BD002010BD1FB546
:1002200001F08CF804000020002103F065FD401C63
:1002300060600020002103F049FDE0601FBD10B5A3
:1002400010BD01F053F81146FFF7E9FF03F09CFBE6
:1002500001F074FB03B4FFF7F2FF03BC01F0BCFB39
:100260000748804707480047FEE7FEE7FEE7FEE74E
:10027000FEE7FEE704480549054A064B70470000C3
:10028000D9300008C1000008580300205809002098
:1002900058050020580500201CB50C46064B7B4431
:1002A00069460090204600F0BEF9044600206946E9
:1002B00000F0CCF920461CBDAB03000030B5441C57
:1002C00003E00178401C00290DD08107F9D10B4BC8
:1002D000DD0104C8D11A91432940FAD0001B0A0657
:1002E00003D0C01E30BD001B30BD0A0401D0801EEB
:1002F00030BD0902FCD0401E30BD000001010101EB
:1003000001E004C0091F0429FBD28B0701D502803C
:10031000801CC90700D00270704700290BD0C307AA
:1003200002D00270401C491E022904D3830702D563
:100330000280801C891EE3E70022EEE70022DFE74F
:100340000378C2781946437812061B021943837852
:10035000C0781B04194311430902090A0006084327
:100360007047002203098B422CD3030A8B4211D31E
:1003700000239C464EE003460B433CD40022430836
:100380008B4231D303098B421CD3030A8B4201D326
:1003900094463FE0C3098B4201D3CB01C01A5241BE
:1003A00083098B4201D38B01C01A524143098B420E
:1003B00001D34B01C01A524103098B4201D30B01F7
:1003C000C01A5241C3088B4201D3CB00C01A52411C
:1003D00083088B4201D38B00C01A524143088B42E1
:1003E00001D34B00C01A5241411A00D2014652417A
:1003F000104670475DE0CA0F00D04942031000D399
:100400004042534000229C4603098B422DD3030AED
:100410008B4212D3FC22890112BA030A8B420CD3FD
:10042000890192118B4208D3890192118B4204D326
:1004300089013AD0921100E08909C3098B4201D3A6
:10044000CB01C01A524183098B4201D38B01C01AE0
:10045000524143098B4201D34B01C01A5241030957
:100460008B4201D30B01C01A5241C3088B4201D306
:10047000CB00C01A524183088B4201D38B00C01AB3
:100480005241D9D243088B4201D34B00C01A52418A
:10049000411A00D20146634652415B10104601D317
:1004A0004042002B00D54942704763465B1000D3A1
:1004B000404201B50020C046C04602BD70477047AB
:1004C000704770B5044685690068C10601D53026BD
:1004D00000E02026C00707D070BD62683046A168E2
:1004E0009047206A401C20626D1EF6D570BD70B525
:1004F000044685690078C00707D170BD6268A168AD
:1005000020209047206A401C20626D1EF6D570BDE9
:1005100009684A0501D540B27047C905FCD500B24B
:10052000704709684A0501D5C0B27047C905FCD5B6
:1005300080B2704770B50C460546012A05D0287870
:10054000800600D5EA69002302E0012305E05B1C78
:10055000934202D2E05C0028F9D1A869E618C01ADB
:10056000A861286AC01828622846FFF7AAFF04E09D
:100570006A682078A968641C9047B442F8D328467A
:10058000FFF7B5FF70BD0000F7B5002575291068AD
:10059000009914A611D0FFF7BBFF002802DA4042F1
:1005A00011A608E0009909688A0701D50FA602E0A4
:1005B000490704D50EA6012501E0FFF7B2FF009F11
:1005C0000024243704E000F07DFE30313955641CEE
:1005D0000028F8D12B4632462146009800F057FA01
:1005E000FEBD0000000000002D0000002B000000F8
:1005F0002000000011680268006A530501D50870E8
:1006000009E0D30501D5088005E0130602D5C2171D
:1006100005C100E0086001207047000001694A1C24
:1006200002610878704700B58FB0029100210591F2
:10063000054901937944039111460490684600F0FE
:1006400025F90FB000BD0000E5FFFFFF0A6810703C
:10065000521C0A6070470000F7B50446154686B084
:100660002B487844002703C83E460090019111E0D2
:1006700007986A467100415A02A800F003FE411C27
:1006800007D02178890603D5E269391891420ED83E
:100690003F18761C2078800602D5E069B84206DD56
:1006A000AE42E5DB07987100405A0028E0D1A0690E
:1006B000C01BA0612046FFF704FF154878445A3854
:1006C00003C800900020019116E041006A46079897
:1006D000415A02A800F0D6FD0590401C0AD0002522
:1006E00005E0626802A8A168405D90476D1C05980E
:1006F0008542F6D30498401CB0420490E5DB206AA2
:10070000C01920622046FFF7F2FE09B0F0BD0000DC
:100710006A370000F7B5D21D0025D20815A6D20011
:10072000F52905CA11D0002A05DA0021404291417D
:1007300011A60A4608E0009909688B0701D50FA6A3
:1007400002E0490701D50EA601251146009F0024AD
:10075000243704E000F05EF930323A55641C02465A
:100760000A43F7D12B4632462146009800F08FF914
:10077000FEBD0000000000002D0000002B00000066
:100780002000000070B504460021243408E055071D
:10079000D2086D0F303565545D072A43DB08491CCC
:1007A00015461D43F3D10468002310A2250708D580
:1007B00020252C400C4304D0C46901230CA2641EE4
:1007C000C46100F064F970BD10B50446214610689C
:1007D000FFF7A7FE002302462046FFF7D3FF10BD18
:1007E000D21DD108C9000CC9CCE7000000000000F0
:1007F00030000000F8B50F460188090502D5224CEB
:100800007C4402E0204C7C440E3405460021243513
:1008100008E016071209360FA65D6E541E07324314
:100820001B09491C16461E43F3D1224604780023B7
:10083000240705D5702F06D0002901D002231132DC
:1008400000F025F9F8BD01231032F9E770B5044630
:100850000D4621461068FFF764FE00230246294634
:100860002046FFF7C7FF70BDD21DD308DB000CCBBD
:10087000C0E730B4036820241268234303600823D0
:10088000C36130BC0023B5E7D4350000F3B504469E
:10089000002081B020622046E1688847002872D09D
:1008A000252802D06268A168ABE0594F00267F443A
:1008B0002046E16888472028054608DB312D06D20E
:1008C000781920380078002801D00643F0E7B007F7
:1008D00001D5042086430020E0610746A0612A2D4F
:1008E0000AD0284602F02EFE002827D0B8000019B2
:1008F000303D0090856119E00298BA00121902C8D3
:10090000916102902046E1688847012F054617D182
:10091000E06900281FDA202086431CE000980A21A5
:100920008069484300994019303888612046E16861
:100930008847054602F006FE0028EFD1012F0AD0B5
:100940002E2D08D12046E168884705462020064321
:100950007F1C022FC3DBA069002803DA4042A0619C
:1009600001200643F00701D0102086436C2D0BD0E8
:10097000682D09D04C2D3CD06A2D38D0742D38D03C
:100980007A2D36D016E040E0E1682F4620468847B1
:10099000B842054609D16C2F29D001208002E168B8
:1009A000064320468847054604E06C2F1DD0FF20F3
:1009B00001300643002D28D028464138192803D895
:1009C0000120C00206432035204626602946029AAF
:1009D0001646FFF7B3FB002810D001280BD0F61DF8
:1009E000F008C0000830029055E74020E1E7802081
:1009F000D5E70020D3E7361D02964CE7626828460B
:100A0000A1689047206A401C44E7206AFEBD0000B0
:100A10004E3500000B4670B5024689078008084332
:100A200019469D08141AA941250908070543080914
:100A30002C194841250A01060D43010A2C19414190
:100A4000200C0D0428430D0C00194D4100214019C4
:100A50004D41C00869070843E908840F8D0025430C
:100A6000840024184D4124196D41121BAB4107E04D
:100A70000925ED432C11521963410024401C6141AA
:100A80001C460A250026551BB441F1D270BDFFB5A6
:100A900004460D4681B0243000902168880604D5B4
:100AA0001022E0699143216000E00120A84201DDAD
:100AB000471B00E000270498A1697A191018081A4A
:100AC000A0612078C00602D42046FFF7FAFC002679
:100AD00008E003986268A168805D9047206A401C26
:100AE000761C206204988642F3DB2078C0060AD583
:100AF0002046FFF7E6FC06E06268A16830209047D8
:100B0000206A401C206238467F1E0028F4DC07E083
:100B100000986268A168405D9047206A401C20628E
:100B200028466D1E0028F3DC2046FFF7E0FC207805
:100B3000000602D5022005B0F0BD0120FBE7000051
:100B40007047FFB50C461E468FB003CA0890099146
:100B50004F007D0D00D16D1E002108460020C046CB
:100B60000321099A89050840002A03DA82008018C7
:100B700040080840800D01280A9002DD0020C04393
:100B80000A90089807430DD0EF48F04928184843C9
:100B90000714189800281DD07542291E1DDD0A98DB
:100BA00042421BE01898012802D00020302104E0C6
:100BB0000020F24305E02154401CB042FBDB3046EC
:100BC0000022189B002121540F998B600A60486015
:100BD00013B0F0BDBD1B6D1CDFE70A9A002900DAD7
:100BE00069420BA800F0F2FB0BAB07CB03AB07C3CA
:100BF0000899099800F04EFC6B4607C30146D4489B
:100C00000918002D00910ADDD14903980A9A49423A
:100C1000401803A90390684600F061FE07E00399BD
:100C20000A9A081803A90390684600F02EFE6B4646
:100C300007C30004000C03D00020C043410800E0BB
:100C40001046189A002A03D00022009215461EE092
:100C5000751E05D4FFF7DEFE303262556D1EF9D5E4
:100C600001220843079602D000227F1C04E020786E
:100C7000302801D100227F1E002A069789D01EE06D
:100C8000112D07DAFFF7C6FE303262556D1C0246A1
:100C90000A43F5D1084303D00098002819D00EE08C
:100CA0000021681E05E0235C625C63542254401EF0
:100CB000491C8142F7DBA81B401E07950690079A46
:100CC00018990020A0540F98079B069A81600CC0C9
:100CD0007EE71126002018905BE7D21DF0B50D4687
:100CE0000446D10893B0C90003C90C900D9102F0DD
:100CF000F1FB02460D98C00F01D02D2007E02068BF
:100D0000810701D52B2002E04007C00F4001032AD4
:100D10000F9001D0072A05DB03462946204600F044
:100D200011FB0EE12078800601D5E76900E0062777
:100D30002846652D04D0662814D0672D69D12DE092
:100D40000020112F009001DB112300E07B1C0CAA76
:100D500003A910A8FFF7F5FE1199002610987D1C35
:100D60000E9142E001203B460CAAC0070B900120E7
:100D7000009003A910A8FFF7E4FE119D12981099A6
:100D8000002600280E9501D1781C0D18781B02D47E
:100D900046427D1C761EE81B00903AE0012F00DAE7
:100DA00001270020112F009001DD112300E03B46B8
:100DB0000CAA03A910A8FFF7C4FE11993D4610988C
:100DC00000260E91217809070BD40E99A94200DA6A
:100DD0000D4603A9012D04DD4A19203AD27F302A9D
:100DE00006D0B84201DA011D04DA012100910FE0BA
:100DF0006D1EEFE7002802DC86192D1A03E0411C66
:100E0000A94200DD0D46801B401C00900120C00758
:100E10000B902078000705D40098A84202DB002040
:100E2000C043009069460020C8720B98012102AFB0
:100E30000337C907884225D0022010902B2011903B
:100E40000B9800280BDA40420B902D20119006E001
:100E50000B9800F037FA30317F1E0B9039701099E3
:100E6000481E00291090F3DC0B980028F0D111984F
:100E70007F1E38702088000501D5452000E06520E0
:100E80007F1E387001A8C01BC01D0B900F98002852
:100E900000D0012041190098C01709180B980818B4
:100EA000A169081A401EA0612078C00602D420461D
:100EB000FFF707FB0F98002805D06268A1689047EC
:100EC000206A401C20622078C00625D52046FFF706
:100ED000F8FA21E0002E07DB0E98B04204DD03A8EB
:100EE0006268805DA16802E06268A1683020904776
:100EF000206A761C401C20620098401E002800904A
:100F00000AD100F01BFAC06862680168405CA16801
:100F10009047206A401C206228466D1E0028D9DCBC
:100F200007E062683878A1687F1C9047206A401CFF
:100F300020620B99481E00290B90F2DC2046FFF737
:100F4000D6FA032044E6000001FCFFFF104D00002C
:100F5000E1DFFFFFD21DF0B504460D46D0088DB08D
:100F6000C000466807683146384602F0B3FA0246C8
:100F7000F00F01D02D2307E02068810701D52B2336
:100F800002E04007C00F43016846002B037001D008
:100F9000012000E00020032A0A9001D0072A04DB88
:100FA0002946204600F0CEF92BE12078800601D4B6
:100FB0000D2500E0E5697000400D0D2D01904BDA24
:100FC000300D00210B9008460020C0460321890502
:100FD0000840002E05DA82008018C20F1018401059
:100FE00008408015012801DD0020C043A90000232E
:100FF000182906D39C460A460123183A1B07D340FA
:1010000003E001221205CA4094460C31202902D384
:101010003A46203900E032468A40002802DD002AA4
:1010200006D119E0002817D10121C9078A4213D33C
:10103000194663467F185E41002806D10120C0078B
:10104000824202D1084687439E430B98310D81426C
:1010500002D00198401C01902088000502D57049FB
:10106000794402E06E49794419396B460A98302276
:101070001A540A980A7C401C1A54401C0A90019881
:10108000002801DC302000E031201872019A012094
:10109000002A02D0634BD21804E072003A4302D017
:1010A000604A521C0192002D02DC2278120703D5FF
:1010B0006A462E20507202200022864694460CE09A
:1010C00032033601120F6D1E8B5C02AA1354624666
:1010D000521C401C9446052A01DA002DF0DC002247
:1010E00002AE08E03B0F3F01CB5C521C6D1E335437
:1010F000401C082A01DA002DF4DC2278920601D582
:101100000FE0401E704504DD3218203AD27F302AAD
:10111000F7D0002805DD3218203AD27F2E2A00D1E0
:10112000401E002D03DD3E223254401C6D1E497CC2
:1011300031540199401C002906DA2D21471C3154F5
:1011400001984042019003E02B21471C3154019843
:101150007D21C900884206DBFFF70DF93030F055DC
:101160007F1C019101E0642808DB01986421FFF7EE
:1011700002F93030F0557F1C019101E00A2806DBAE
:1011800001980A21FFF7F7F83030F0557F1C0198DD
:101190000A21FFF7F0F83031F1550A98A1697F1C58
:1011A0007A191018081AA0612078C00602D42046C7
:1011B000FFF787F9216A6E460A980818206204E052
:1011C00062683078A168761C90470A98401E0A90A1
:1011D000401CF5D12078C00602D52046FFF771F9F2
:1011E00002AE09E03078761C3E280DD06268A16816
:1011F0009047206A401C20627F1EF3D22046FFF7F2
:1012000076F90DB00320F0BD206A4019206203E09A
:101210006268A168302090476D1EEDD3F8E70000AA
:10122000C02D000001FCFFFF10B54369002B02D068
:10123000C046C04601E0FFF77DF9012010BD1278DD
:10124000014624310A7000224A700122ECE711683D
:101250000022D243E8E710B54369002B02D0C04614
:10126000C04601E0FFF7F8F9012010BD12880146E1
:10127000243182840022C2840122ECE7116800221A
:10128000D243E8E770B516460C46054600F04EF826
:101290000368FF200230C05C012807D0FF2C0ED865
:1012A000185D00280BD001202C7070BDFF33324632
:1012B000214608331868C3182846984770BD002097
:1012C000C04370BD01468008081A02091018020ABE
:1012D0001018020C1018C008820012185200891A47
:1012E00001E0401C0A390A29FBD27047754600F01C
:1012F0002BFBAE46050069465346C008C000854634
:1013000018B020B5FEF7B6FF60BC00274908B64606
:101310000026C0C5C0C5C0C5C0C5C0C5C0C5C0C504
:10132000C0C5403D49008D467047000010B500F033
:1013300005F8001D10BD00BFC1290000004870471E
:1013400014030020F8B51F46044601230068DB02A1
:10135000032601461840072A05DB002801D017A5FF
:1013600006E017A504E0002801D016A500E016A5A8
:10137000102081432160A069C01E002FA06101D010
:10138000401EA0612046FFF79CF8002F09D0384688
:101390006268A1689047206A401C2062C01C2062DD
:1013A00006E0206AFAE762682878A1686D1C904719
:1013B000761EF8D22046FFF79AF8F8BD4E414E004F
:1013C0006E616E00494E4600696E6600F7B51646BE
:1013D0008AB02F4878446C4603467C33C06F5A6805
:1013E0009B680DC42A487844763003AC0DC80DC400
:1013F0003720C001081837211B30FEF7BCFF054617
:101400000C46803D1B3C02D56442012000E00020D8
:10141000002709900FE0E0070BD00C201C4978430F
:10142000794432464C394118684600F02EFA6B4632
:1014300007C364107F1C002CEDD1154F7F442C3F57
:1014400015E0E80711D02001C0190EC806910893D5
:1014500007920068F04201D198190890324606A917
:1014600003A800F012FA03AB07C36D10641C002D33
:10147000E7D1324669460998002803A802D000F057
:101480002EFA01E000F001FA0A9B07C30DB0F0BD8F
:10149000602A0000034640000A4610B5400D0BD0FC
:1014A0000121C9070F24A40200191C036408214369
:1014B000540D2143D20207E000210120F2E7D40FAE
:1014C000490021435200401E0029F8DADB0FDB07F8
:1014D000184310BDFFB50D46144685B048685168E5
:1014E00001F0D2FF00910190A868A16801F0CCFF43
:1014F00002910390A868616801F0C6FF029A121871
:101500008242029201D2012000E00020019A0B18D1
:10151000D2180028019202D08A4202D903E08A42FE
:1015200001D2012000E000200099081800906868AE
:10153000A16801F0A9FF029A12188242029201D218
:10154000012000E00020019A0B18D2180028019217
:1015500002D08A4202D903E08A4201D2012000E08F
:101560000020009908180090286821684000490070
:10157000400849084018EE49471814E00199400016
:10158000C90F08430090019802994000C90F084311
:101590000190029803994000C90F084302900398F4
:1015A00040007F1E039000980028E7DA0898002882
:1015B00001D0E04E00E00026B74228DAF71BF8061B
:1015C000C00E15D0029B2021091A039A8B401A43A2
:1015D0000392029A019BC2408B401A430292019AE5
:1015E000009BC2408B4000991A430192C140009178
:1015F0007A110BD06B460320811A01D5002101E03E
:10160000890059588700401ED951F5D537460398AF
:101610000299002800D00120014308980291002877
:1016200008460CD0002800D001200199019A4905F4
:1016300008430121D20AC902D202019200E001212D
:101640000E9B0122D207012B02D0002B03D013E006
:10165000002807D116E0904204D890420CD1019B9B
:101660000B4209D0019B5918019105D10099491CE1
:10167000009101D17F1C0092002803D01021084660
:101680000020C04628682168019B009A4840C10F8D
:101690000598C90739430EC009B0F0BDFFB587B042
:1016A000099A08980899536892684068896896462C
:1016B0000022039317469446089A12685300099A29
:1016C0005B081268520052089A1A9B4BD4180A9A67
:1016D000002A01D0352200E0402206920022012398
:1016E00015460492DB07059324E0002D05D17546CD
:1016F0000346039E4D1BB34109D375466646039BC3
:10170000491B049D9841059B7519AC465F41634692
:101710003B4308D0059B049EDD0776082E435B08FB
:101720000496059301E0521E641EC50FED0749188B
:101730004041521C069B9A42D7DB002D04D17546CE
:10174000039A6B1A824101D203200CE0039A0B46E4
:101750006B404240134303D0014303D0012002E019
:10176000022000E0002061460191002100970291D3
:101770000A99002905D06146400201436D4B019151
:1017800002E08007002302909C423ADA1A1BD0063E
:10179000C00E15D0029D2021019C091AC5408C4025
:1017A0002543029C8C4000D001242543019C0295D6
:1017B0003D46C4408D4039462C43C14001940091C0
:1017C00054111DD06D460221002202290CD10320A4
:1017D000001B07E0002804DB8600AE59002E00D075
:1017E0000122401C0328F5DB081B02D588002A5083
:1017F00004E08000285810438A00A850491EE3D511
:101800001C460A98002802980CD0002800D001201D
:101810000199019A490508430121D20AC902D2025D
:10182000019200E00121109B0122D207012B02D07E
:10183000002B03D013E0002807D116E0904204D813
:1018400090420CD1019B0B4209D0019B5918019188
:1018500005D10099491C009101D1641C0092002817
:1018600003D0102108460020C04608980999019A23
:101870000068096848400099C30F0798DB072343B5
:101880000360826041600BB0F0BD1FB50023009281
:101890000A46014601A8FFF71DFE01AB07CB04B0C5
:1018A00010BD1FB5012300920A46014601A8FFF7AB
:1018B00011FE01AB0F2407CBA402C30F4000DB07CE
:1018C0004008001B002900DB0020490000054908F2
:1018D000CC0A204349051843D20A1143DFE71FB55C
:1018E000002300920A46014601A8FFF7D7FE01AB8C
:1018F00007CBD4E71FB5012300920A46014601A891
:10190000FFF7CCFE01AB0F2407CBA402C30F4000AE
:10191000DB074008001B002900DB00204900000510
:101920004908CC0A204349051843D20A1143B6E7B7
:1019300002C0FFFF013C0000FF3F00000446C0461C
:10194000C0462046FEF786FC00487047F40200209F
:10195000024670B50A4392072AD11E4DEE0104C813
:1019600008C9541B9443344017D0D0B2D9B2401A9E
:101970002106014310D190B299B2401A21040143CB
:101980000AD110021902000A090A401A2102014371
:1019900002D1100E190E401A70BD9A42DFD010BA53
:1019A00019BA884201D9012070BD0020C04370BD22
:1019B00002780B78401C491C002A09D09A4207D1B2
:1019C00002780B78401C491C002A01D09A42EFD0C3
:1019D000D01A70BD0101010101491820ABBEFEE71C
:1019E000260002007047002211460346CB40DB0769
:1019F00001D0521CD2B2491CC9B20A29F5D3D10771
:101A000002D0012189020843704700221146034693
:101A1000CB40DB0701D0521CD2B2491CC9B20A2903
:101A2000F5D3D107800AC90F884201D10120704740
:101A30000020704710B50120C00200F03FF90120DE
:101A4000000300F03BF910BD7047000003494A69EC
:101A500001231B04184302434A61704700200240DF
:101A6000044A5069044BC90018400143034801432C
:101A7000516170470020024007E0FFFF02000100B3
:101A800030B505494C6901252C434C610260BFF318
:101A90006F8F436030BD00000020024030B50B4C1A
:101AA000002362690125AD042A436261EFF31082CD
:101AB00072B620C95B1C20C0DBB2402BF9D3206971
:101AC000C003FCD482F3108830BD00000020024027
:101AD000F8B5054600F0DCF9471901263604114C2B
:101AE00003E000F0D5F9B84214D220693042F8D1B1
:101AF00021690D4801400D48206103D00C48416028
:101B00000120F8BD00F0C4F9451905E000F0C0F966
:101B1000A84201D30320F8BD20694003F6D4002079
:101B2000F8BD000000200240FA830000FB830000A3
:101B3000D802002070B5044600F0AAF90546601CE2
:101B400002D004480078241800F0A2F9401BA042FB
:101B5000FAD370BD40000020F8B51F4E044630781F
:101B60000F4601280AD001203070002070607D20CF
:101B7000C000FFF7ADFF002802D029E00220F8BD29
:101B8000042161602268042A03D0491F3960A568D6
:101B900014E00846FFF75AFF7D20C000FFF798FFCA
:101BA00016E029466068FFF75BFF7D20C000FFF765
:101BB0008FFF002801D03D6005E06D1CE268A16840
:101BC0008918A942EDD805494A6902239A434A6116
:101BD00000213170F8BD0000D80200200020024032
:101BE000054901204A69C3071A434A614969002926
:101BF00000DA00207047000000200240F0B51FB45A
:101C0000144C06462078154601280AD00120207081
:101C100000277D20C0006760FFF75AFF002803D02F
:101C200010E0022005B0F0BD012E0DD0294601982C
:101C3000FFF734FF7D20C000FFF74AFF06494A69DD
:101C4000B2434A612770EDE72A46039B0198FFF7EC
:101C500017FFEFE7D80200200020024006490020CD
:101C60004A69002A07DA054A8A60054A8A60496992
:101C7000002900DA01207047002002402301674557
:101C8000AB89EFCD012210B5D2020B49904207D1AA
:101C90000220C8628869002801D001F05BFC10BDF9
:101CA000012212039042FAD10420C862C8690028B8
:101CB000F5D001F077FF10BD0000002070B5084D91
:101CC0000446E868204203D0EC60204600F00AF8A1
:101CD0002869204203D02C612046FFF7D3FF70BD56
:101CE00000180240012210B5D2020B49904207D1E0
:101CF0000120C8628869002801D001F02BFC10BDCA
:101D0000012212039042FAD10320C862C869002858
:101D1000F5D001F047FF10BD00000020F0B5002312
:101D200003249AE02A4601259D402A407ED00E7960
:101D3000B607B60F012E01D0022E16D186682746AF
:101D4000B4465E00B646B7406646BE43B446CF686A
:101D50007646B7406646374387604668AE430D799E
:101D6000ED06ED0F9D40354345600D79ED43AD0720
:101D700008D0C5685F002646BE40B5438E68BE40A9
:101D80002E43C6600D79AD07AD0F022D0ED1DD08D3
:101D9000AD002D18AC462D6A5E07F60E0F27B74032
:101DA000BD430F69B7402F4365462F6205685F004A
:101DB0002646BE40B5430E79B607B60FBE402E4349
:101DC00006604D68AD03AD0F46D09E08264DB600A7
:101DD0007519AC462D6E9E07F60E0F27B740BD4312
:101DE00005273F07B84201D100270FE01F4FB84237
:101DF00001D101270AE01E4FB84201D1022705E0B8
:101E00001C4FB84201D1032700E00527B7402F43FC
:101E1000154D664637662D684E689543F60200D527
:101E20001543114F3D607D68954300E014E04E6816
:101E3000B60200D515437D600B4D80356E684F6846
:101E40009643BF0300D516436E602E684F689643D5
:101E5000FF0300D516432E605B1C0A681546DA4066
:101E600000D05FE7F0BD0000001802400004005001
:101E700000080050000C00500069084000D001200C
:101E80007047002A01D0816170478162704700006D
:101E900001488068704700004000002070B502468D
:101EA00040325378202B1CD11378012B19D00123F9
:101EB000137024245470046825689D4325600468C9
:101EC00025681E03B5432560046825680D43256019
:101ED00000680168194301602020507000201070D4
:101EE00070BD022070BD70B5024640325378202B81
:101EF0001BD11378012B18D00124147024235370A4
:101F000003681D68A5431D6005682B680F2636020F
:101F1000B343090219432960006801682143016045
:101F2000202050700020107070BD022070BD000095
:101F300008B506490A6801231A430A60096819406E
:101F4000009103490A6802430A6008BD401002403C
:101F500000000140406C704770B5040006D0254673
:101F6000403568780026002802D005E0012070BDC9
:101F70002E70204600F0D2F8242068702068016896
:101F80004908490001600F216068090688432168FB
:101F9000086121688A680120C00382438A60E16881
:101FA0000129A16808D02122920211432268916080
:101FB000E168022902D005E00143F7E70121226828
:101FC000C902516021684A680F4B1A434A60216870
:101FD000CA688243CA60616920690843A16909022D
:101FE00008432168C860216AE069084321680860E5
:101FF0002068016801221143016066642020687036
:102000002663AE70002070BD00800002FFB505465B
:1020100004464035687881B0202878D12878012896
:1020200075D001202870FFF733FF0746012200908A
:102030001923D103204600F031FE00283CD1212095
:1020400068701020A8700026666403986062049887
:1020500060856663618D2F48FF2903D9FF222285A1
:1020600000903BE0618D218500903DE02046029983
:1020700000F0CAFD16E000F05EFE00281CD1606A88
:10208000216800788862606A401C6062608D401E32
:102090006085208D401E80B22085618D002901D091
:1020A00000280CD0608D0A9900283A462046E2D1DB
:1020B00000F01BFE00281CD0012005B0F0BD0097E9
:1020C0000022802120460A9B00F0E8FD0028F3D181
:1020D000608DFF2805D9FF222285009601231B066B
:1020E000C4E7608D20850096208D0123C2B25B0677
:1020F000BCE721682020C86121684A68064B1A4065
:102100004A606870AE702E700020D6E7FFE70220AC
:10211000D3E700000020008000E800FE30B58DB05D
:10212000044614216846FEF709F9182105A8FEF7B0
:1021300005F917492068884227D1202000250590FD
:10214000079505A800F0B6F8002801D0FFF77CFC41
:10215000104C616B022001436163616B0295014089
:10216000032000020B9100901220019006200490A1
:10217000039569460848FFF7D1FDE16B0120400552
:102180000143E163E16B01400B910DB030BD0000F4
:1021900000540040001002400004005002488168D2
:1021A00002788918816070474000002010B5084807
:1021B00000240168821511430160032000F00AF831
:1021C000002801D0012401E000F028F8204610BDCD
:1021D0000020024070B50F4E0024317805460029DA
:1021E00015D07D20C000FEF7BCF801460A48006803
:1021F000FEF7B7F800F0F6FB002808D1042D06D250
:1022000000222946401E00F02BF8756000E00124F2
:10221000204670BD400000204C00002008B5094851
:1022200001680122114301600068104000900548D8
:102230004038C26B01040A43C263C06B084000907F
:1022400008BD000040100240002805DBC106C90E91
:1022500001208840014908607047000000E100E06B
:1022600010B501F04DF910BD10B50F4C21680322D7
:102270005202914301432160C11FFF39FA390ED147
:102280000A480621006848430949FEF76AF8401CDD
:1022900002E0002805D0401E61694905F9D40020FC
:1022A00010BD032010BD0000007000404C00002055
:1022B00040420F00F8B50446006800264D4D8003EB
:1022C00058D54C4800274038C06BC00009D4494855
:1022D0004038C26B01040A43C263C06B0840012747
:1022E000009045480168821511430160FFF7D0FD59
:1022F000009005E0FFF7CCFD0099401A022825D890
:102300003D480068C005F5D5E86903210902084089
:102310000FD0616981420CD0E86903210902EA69A2
:102320008843012109040A43EA61EA698A43EA61B0
:10233000E861C0070FD0FFF7ABFD009008E0FFF7A2
:10234000A7FD0099411A2D48814201D9032609E0D1
:10235000E8698007F3D5E8690321090288436169C8
:102360000843E861002F05D022484038C26B0104C1
:102370008A43C2632078C00705D068696168800815
:102380008000084368612078800606D568690321CB
:1023900009038843A168084368612088400411D577
:1023A000686921698000800808436861012120690B
:1023B0008907884206D10F484038C16801221204BB
:1023C0001143C1602088000512D568690321890383
:1023D0008843E168084368610121E0688903884215
:1023E00006D104484038C168012212041143C1607B
:1023F0003046F8BD401002400070004088130000D5
:10240000F8B50F46060043D04D4D28684007400FF1
:10241000B84213D22868C008C00038432860FFF7CC
:1024200037FD044605E0FFF733FD011B45488142B7
:1024300061D828684007400FB842F4D13068424C58
:1024400081070DD5400704D5A0680721090308437B
:10245000A060A0680F2109028843B1680843A0600A
:102460003078C00732D0706801280AD002280BD01B
:1024700000280FD03449403103280ED0C96989079C
:1024800004E02168890301E021688901002906DB55
:102490000120F8BD21684905F8E7096AEFE7A1685E
:1024A000C908C9000143A160FFF7F2FC009006E0F3
:1024B000FFF7EEFC0099411A224881421BD8A06820
:1024C000382108407168C9008842F1D12868400766
:1024D000400FB84217D91A480168C908C9003943E2
:1024E0000160FFF7D5FC054607E0FFF7D1FC411B73
:1024F0001448814201D90320F8BD11480068400703
:10250000400FB842F1D13078400706D5A0680721C6
:1025100009038843F1680843A06000F031F8A1681E
:102520003C2289091140094A515CC906C90EC840BC
:102530000749086007480068FFF74CFEF8BD000037
:10254000002002408813000000100240703D000887
:102550004C000020440000200648074900688968B4
:10256000064A4904490F8900515CC906C90EC84092
:10257000704700004C00002000100240B03D0008F1
:1025800010B5204CA068204A8006400F16D0A068E5
:102590008006410F501001290FD0A1688906490F0C
:1025A000022912D0A0688006400F042823D0A0681A
:1025B0008006400F032821D0002010BD2068012193
:1025C0008004400F8140104612E0E1688B07E1680B
:1025D0009B0F4906490F491C032B00D01046FDF7FD
:1025E000C0FEE1684904490E4843E168490F491CAF
:1025F000FDF7B7FE10BD0120C00310BD7D20000215
:1026000010BD0000001002400024F400F8B50400E2
:102610007ED020783827C007E94D002846D0A8682A
:10262000E96838408907890F102802D008280BD0A4
:1026300001E0032908D001206268000482420AD127
:1026400029680143296015E0286880032ED5606859
:102650000028DDD02AE0052301211B0489049A42C9
:102660002A6802D10A432A60EAE782432A6028687E
:1026700088432860606800280CD0FFF709FC0646F4
:1026800004E0FFF705FC801B642873D828688003EA
:10269000F7D50BE0FFF7FCFB064604E0FFF7F8FB7D
:1026A000801B6428F1D828688003F7D4207880073D
:1026B00069D5A868E96838408A070721920FC902DE
:1026C000102802D0002813D001E0022A10D0E068C0
:1026D000002846D028688843216908432860286874
:1026E000FF21013108432860FFF7D2FB06462CE0AA
:1026F0002A68520502D5E268002A89D06A687F23D9
:102700001B029A4363691B021A436A60002800E0B7
:102710008DE00ED128688843216908432860286825
:1027200001218004400F8140A648FDF71AFEA6490A
:102730000860A6480068FFF74DFD002877D122E029
:10274000FFF7A6FB801B02289FD828684005F7D515
:1027500068687F210902884361690902084368604B
:1027600011E02968FF20013081432960FFF790FBC9
:10277000064605E098E0FFF78BFB801B022884D813
:1027800028684005F7D42078914E00072ED5A86818
:102790008006400F03280AD0A0690028306A16D0AE
:1027A000012108433062FFF773FB07460BE0306AF4
:1027B00080071BD5A06900289FD017E0FFF768FBB2
:1027C000C01B022870D8306A8007F7D50EE0400899
:1027D00040003062FFF75CFB074604E0FFF758FB60
:1027E000C01B022860D8306A8007F7D420784007E1
:1027F0006CD5A86800278006400F042818D0E86B25
:10280000C00008D4E96B012000070143E963E96BCC
:102810000140012700916F480168C90519D401687A
:10282000821511430160FFF733FB00900DE083E058
:10283000F06980074AD5A06800287DD046E0FFF700
:1028400027FB0099401A02282ED862480068C0056C
:10285000F5D5A168012910D004200529F16911D00E
:1028600049084900F161F1698143F161A0680028DC
:1028700016D0FFF70DFB00900EE0F0690121084330
:10288000F061F3E70143F161F7E7FFF701FB00991E
:10289000411A5148814265D8F0698007F5D50EE0AC
:1028A000FFF7F6FA009007E05CE0FFF7F1FA009915
:1028B000411A4948814255D8F0698007F5D4002F64
:1028C00004D0E96B012000078143E963E069002837
:1028D00073D0A9688906490F02294DD00126360612
:1028E0000228286805D0B0432860FFF7D1FA0446D3
:1028F0003AE0B0432860FFF7CBFA074604E0FFF761
:10290000C7FAC01B02282DD828688001F7D4616A55
:10291000206AA26A0843E16A120211430843216B4C
:102920000843E9682D4A11400843E86028683043AD
:102930002860E868012100E03DE009070843E860FD
:10294000FFF7A6FA044604E0FFF7A2FA001B0228EC
:1029500008D828688001F7D52FE0FFF799FA001B07
:10296000022801D90320F8BD28688001F5D4E86861
:102970001B490840E86020E00128F4D0E868226A9A
:102980008107890F914216D17021626A01409142FC
:1029900011D17F21A26A09020140120291420AD19B
:1029A0001F214904E26A0140914204D1400F216B8A
:1029B0004007884201D00120F8BD0020F8BD00008A
:1029C000001002400024F4004C00002044000020CD
:1029D0004010024000700040881300008C80C11F2E
:1029E000FCFFFEEF094910B5401E884201D90120C5
:1029F00010BD074C60610321081F00F081FD00201D
:102A0000A06107202061002010BD0000FFFFFF0033
:102A100000E000E070B5040005D025468035A868C8
:102A2000002802D006E0012070BD00202871204659
:102A300000F026F82420A8602068016849084900B1
:102A40000160204600F0E0FB0128EDD0A06A0028DC
:102A500002D0204600F041FB206841680922D202E2
:102A600091434160206881682A22914381602068F7
:102A70000168012211430160204600F093FB70BD04
:102A800010B586B0044614216846FDF757FC11497D
:102A9000206888421CD11048C26B012149040A43B6
:102AA000C263C26B0A400592426B01210A43426332
:102AB000406B0491084005900C200090022001908A
:102AC000002002900390052069460007FFF726F9D1
:102AD00006B010BD0044004000100240FEE701684F
:102AE0008A69D243920701D400228A620068816910
:102AF000C943C90703D0816901221143816170472D
:102B0000F7B50446006882B0816900262746C906E9
:102B1000403735460092002942DA1021C16131E088
:102B20000398401C2ED0FFF7B3F90099411A03987F
:102B3000814201D8002825D12068416801229203F2
:102B40001140BA788369DB431B0416D401239B032D
:102B5000994212D0202A10D0416819434160FFF7F2
:102B600097F9009009E0FFF793F90099401A1928A6
:102B700003D920200543012604E020688069C04372
:102B80008006F0D4206880698006C00F3043C7D02B
:102B9000002E02D121682020C861042005430126AF
:102BA00021688869C20504D5012215431202CA6151
:102BB0000126410508D508210D432268C901D161CC
:102BC0000126800502D40AE0800506D502200543CF
:102BD00021680002C861012601E0002E0FD02046C6
:102BE000FFF77DFF20684168064A11404160606C34
:102BF00028436064202078700020B8703870304618
:102C000005B0F0BD00E800FE890510B5890D12047D
:102C10001143029C19430268214349005068490846
:102C2000630D034C234398430843506010BD0000DC
:102C3000FF63FF031CB58B00110A0B434004010C1A
:102C40006846037142717D20C0000090022301AAF2
:102C50000948FFF7DBF900280CD008A000F0F2FBD0
:102C60000548FFF777F9042804D008A000F0EAFB34
:102C700001201CBD00201CBDE8000020206932633B
:102C8000206572726F72320D0A0000002069326393
:102C9000206572726F720D0A00000000F8B51D46C3
:102CA00017460E46044609E0681C07D0FFF7F0F807
:102CB0000699401AA8420BD8002D09D020688169D6
:102CC000304688430FD00020B842EDD00020F8BD38
:102CD000616C202001436164403460700020A0706A
:102CE00020700120F8BD0120EEE770B516460D46B4
:102CF00004460FE0324629462046FFF701FF002830
:102D000001D0012070BDFFF7C3F8801BA84208D88E
:102D1000002D06D020688069C0438006EAD40020D8
:102D200070BD616C202001436164403460700020FC
:102D3000A0702070E5E770B516460D46044611E018
:102D4000324629462046FFF7DBFE002801D001204D
:102D500070BD681C06D0FFF79BF8801BA84208D8FE
:102D6000002D06D020688069C0438007E8D4002089
:102D700070BD616C202001436164403460700020AC
:102D8000A0702070E3E70000F0B587B0142168461A
:102D9000FDF7D4FA3C48416B022631434163416B55
:102DA00031400591426B04210A434263426B0A4061
:102DB0000592416B012421434163406B2246204030
:102DC0000590E1033148FFF75CF80520002201215E
:102DD0000007FFF756F8002208212D48FFF751F8A9
:102DE000F72003270025009069460197029528489F
:102DF000FEF794FFA00300906946019702952348CF
:102E0000FEF78CFFE003009001946946039502945D
:102E10001E48FEF783FF05200094019469460007D1
:102E200003950294FEF77AFF052069460007009695
:102E300001950294FEF772FF16480090052069463E
:102E4000019702950007FEF769FFF8020090312014
:102E5000000401900520694602940007FEF75EFF1A
:102E60000820009001946946039502940848FEF7F3
:102E700055FF002211460720FFF7F2F90720FFF760
:102E8000E3F907B0F0BD0000001002400008005058
:102E900000040050F081000010B51548134901608E
:102EA0001449416000218160016141618161012219
:102EB000C161C2600162FFF74FF8002801D0FEF740
:102EC000C3FD00210A48FEF7E9FF002801D0FEF704
:102ED000BBFD00210648FFF706F8002801D0FEF7E9
:102EE000B3FD01200005FFF723F810BD005400409A
:102EF000E8000020290B300010B50D480B49016097
:102F0000E1214902416000218160C160016181616C
:102F1000C16101620C22416242618162FFF77AFD68
:102F2000002801D0FEF790FD10BD000000440040D5
:102F300040010020FEE7704700B585B014216846C7
:102F4000FDF7FCF9012000030090312000040190FE
:102F500001200290052069460007FEF7DFFE0249C6
:102F60000020486105B000BD0000002010B586B00B
:102F700014216846FDF7E2F90120000300900020CB
:102F80000124039005200194029469460007FEF78E
:102F9000C5FE0248446106B010BD000000000020DC
:102FA00010B5044606484069002801D1FFF7DEFF4E
:102FB00001210520E2B209030007FEF762FF10BD00
:102FC0000000002000787047F7B504460120C002D9
:102FD00086B01546824248D80004844245D324492D
:102FE000098C4906890EC9020818A0423DD9FEF78E
:102FF00035FE6807400F00F0ADFC401985B2600552
:103000000ED1022102911F21C9066118C90A04913B
:103010000121059103900090694602A8FEF79CFDEE
:103020000026EF081DE00798F1000D182846FDF76F
:1030300087F9E9780002000A090608430290281D72
:10304000FDF77EF90302E8791B0A000603432146D7
:103050000120029AFEF7D2FD002800D10834761C28
:10306000B6B2B742DFD8FEF7BBFD09B0F0BD000035
:10307000C075FF1F704710B5FFF790F810BD30B551
:1030800091B034216846FDF759F9002401200D94D0
:103090000E940F9440021094FFF7E6F80225E80121
:1030A000039000954020059008200A9080030B9023
:1030B0000795000304940C90089509946846FFF75F
:1030C000A5FA07200D900F9402210E9510940DA8DB
:1030D000FFF796F911B030BD704710B5018DC907E3
:1030E00007D001684A6801235B049A43C36A1A4304
:1030F0004A60018D890707D501684A6801231B04CE
:103100009A43036B1A434A60018D490707D501684A
:103110004A6801239B049A43436B1A434A60018D1A
:10312000090707D501684A680123DB039A43836BCB
:103130001A434A60018DC90607D5026891680123C8
:103140001B039943C36B19439160018D890607D511
:1031500001688A6801235B039A43036C1A438A60FF
:10316000018D490612D503685A6801210905446C8E
:103170008A4322435A60426C8A4207D102685168EE
:1031800003235B059943836C19435160018D090644
:1031900007D501684A680123DB04C06C9A430243E7
:1031A0004A6010BDFEB506460025803604463561EE
:1031B000FEF76EFE019020680068124F000709D5E7
:1031C00001210097002249052046019B00F0D0F81C
:1031D00000280DD12068006840070BD50121009719
:1031E000002289052046019B00F0C2F8002801D08A
:1031F0000320FEBD2020B060F060E56625673571D4
:103200000020FEBDFFFFFF01F8B50446806821697C
:10321000E269084361690025114322680843116887
:103220004B4B19400143116020684168032212038F
:103230009143E26811434160A169206A0843216813
:103240008A68444B1A4002438A602068C16A626AF5
:10325000090909011143C1623F492068884211D11F
:103260003E4840698007800F0FD0012806D0022811
:1032700002D003280BD103E0022109E0042107E07A
:10328000082105E03649884201D1002100E01021E3
:103290000120E369C003334A334E344F834227D1C0
:1032A000002906D0022907D0042907D008293FD1D8
:1032B00008E0FFF751F903E0104603E0FFF760F97B
:1032C00000283AD0616A4900715AFDF74AF86168EE
:1032D00040004A088018FDF744F801461039B94209
:1032E00026D82249491C01400007400F084322E02C
:1032F000002906D0022907D0042907D0082917D1B0
:1033000008E0FFF729F903E0104603E0FFF738F97A
:10331000002812D0616A4900715AFDF722F86168ED
:103320004A088018FDF71DF801461039B94201D945
:10333000012502E080B22168C860204601214030AA
:103340004185018500206067A0672846F8BD000020
:10335000F369FFCFFFF4FF11003801404010024035
:10336000004400400024F400583D0008EFFF000036
:10337000FFB581B005461746044680350A9E54E0E5
:10338000701C52D0FEF784FD0499401AB0422FD829
:10339000002E2DD020680168490746D5C069C0437A
:1033A000000542D401202168C0020862EFF31080BA
:1033B000012181F3108821680B68FF22A132934319
:1033C0000B6080F31088EFF31080012181F31088E7
:1033D00021688A68520852008A6080F31088202091
:1033E000A860E860286100202871032005B0F0BDC6
:1033F000EFF31080012181F3108821680A68FF2310
:10340000A1339A430A6080F31088EFF31080012102
:1034100081F3108821688A68520852008A6080F31C
:1034200010882020A860E860DDE72068C169029864
:10343000884304D00020B842A2D00020D6E7012063
:10344000F9E700000FB410B503AA0D480299FCF784
:1034500023FF0B48FCF732FF0A49CA695206FCD524
:103460000022074B05E09C5C8C62CC696406FCD5AD
:10347000521C8242F7D310BC08BC04B018470000AD
:10348000D801002000440040F8B5040C8BB2264659
:1034900082B25E43104658430D0C370C36040021AF
:1034A0008019164679416E43370C3604801926463A
:1034B00079416E438919F8BD30B47446641E25788D
:1034C000641CAB4200D21D46635D5B00E31830BC58
:1034D000184700004900CA020243100000D004202F
:1034E0004A0D01D001221043044A490D914201D1F5
:1034F00002210843012800D105207047FF07000082
:103500008307FF22DB0E9A408907090E99400028A5
:1035100008DB830809489B001B1818689043084380
:10352000186070470007000F0838830804489B00A4
:103530001B18D86990430843D861704700E400E045
:1035400000ED00E030380A2801D201207047002049
:1035500070470000F8B5714C0527606A0121401CD6
:103560006062226AC9023807002501261300FFF7AE
:10357000A3FF0604174E66C2CF130746FEF77CFC76
:10358000002806D1012109033846FEF775FC002802
:1035900003D0606A401C6062F8BD2662A562F8BD77
:1035A0000646FEF769FC0128F9D101033046FEF713
:1035B00063FC002826D002202062207800280AD050
:1035C00001280AD0811E4B290CD24100544808180A
:1035D0004038808F0EE0208900E0E088FEF703FA93
:1035E000608112E001464D3914290ED24D49081868
:1035F0006038C07C6081FEF7F6F960812078401C5D
:10360000207002E0032020626580A580F8BDFEF7EF
:1036100033FC0028FAD1A0880A2804D9A5802762A3
:1036200026616562F8BD0A21091A6089C840C00791
:10363000C00FFFF7B5FCA088401CA080F8BD052096
:103640000007FEF719FC0128F8D101030520000747
:10365000FEF712FC002807D021790A20411A3046D3
:103660008840618808436080A088401C80B2A080A8
:103670000A28E3D92046A5801830E0C0FFF75CFC9B
:103680006088FEF7C2F90028D8D060888005800DD8
:1036900060804B2804D242002148E1888152F8BD65
:1036A000FF218900884201D12670F8BD1E49884259
:1036B00001D16670F8BD7F21C900884201D14D203B
:1036C0000AE01949891C884201D1022011E01649FB
:1036D000891E884202D102202070F8BD1249491E7D
:1036E000884201D12570F8BD0F49C91C8842FAD122
:1036F00004206070F8BDFEF7BFFB0028FAD1A08857
:10370000401C80B2A0800928F4D9A5802762F8BDAA
:10371000E661A561FFF710FCF8BD00000000002085
:1037200050000020443D0008FB030000F8B5414D67
:103730000024A86B2646401CA863E96B491CE9637A
:103740003D49884206D9288EE88028813BA0AE6397
:10375000FFF778FEE8883D493D4F884209D22A6943
:10376000002A06D000282FD00220FF212D31E8604A
:1037700007E088420FD9296900290CD00320354978
:10378000E860E86BFCF7EDFD00291DD178690821A0
:103790004840786118E0E1218900884202D22A6914
:1037A000002A05D088420FD92869002806D00BE0EE
:1037B000002809D001200246E86001E00022EE6006
:1037C00008213846FEF75DFB00F04AFA2846697882
:1037D000214D02290CD0214F032915D0012906D1F2
:1037E00046701F486100641C78524B2CFAD3F8BD18
:1037F000032141701BA0FFF725FE284600F006FAC2
:103800006420FEF797F9F8BD467018A0FFF71AFE7E
:10381000962212492846FFF7D7FB6000395A19A0B3
:10382000FFF710FE0120FEF785F9641C4B2CF4D342
:10383000F8BD000000000020204E00006F757420CD
:103840006F662072616E67650A000000EE0200007C
:1038500000040050102700000078000850000020ED
:10386000FFFF00004572617365200A007361766591
:10387000696E6720746F20666C617368203D3D3D02
:103880000A000000202C256420000000F8B52B4E13
:10389000054600242A4B304622465700DF5BB742DC
:1038A00009D0AF4201D2EF1B00E07F1BBFB2B8428C
:1038B00001D938461446521C92B24B2AEDD3214E00
:1038C000012934D16000195AA94214D26A1AC018C9
:1038D00040880A25401A6A430A2195B24843FCF7FA
:1038E0004AFD0104090C1FD02846FCF73AFD0A21C5
:1038F0004C43001916E0002C1DD0C0184A1B40385C
:10390000C08F0A25081A6A430A2195B24843FCF77A
:1039100032FD0104090C07D02846FCF722FD0A21DC
:103920004C43201A84B202E00A204443A4B2B442B9
:1039300001D9044C641E2046F8BD0000FFFF0000C2
:1039400050000020FF0300008001800900BF401EDE
:10395000FCD27047014600B500200B00FFF7ACFD1C
:1039600008060507090B0D0F1106072000BD0620EC
:1039700000BD052000BD042000BD032000BD0220C5
:1039800000BD012000BD00001CB500242646FEF746
:103990000DFCFFF774FBFFF7F7F9FFF77DFAFFF770
:1039A000ABFA012208216E48FEF76BFA05252D07B8
:1039B000002201212846FEF764FA6420FEF7BAF8D7
:1039C000012211462846FEF75CFA6420FEF7B2F8A1
:1039D0006420FEF7AFF8634865002818FFF7F2FA95
:1039E00007026048401E2818FFF7ECFA3A460243E7
:1039F0005D48214642535DA0FFF724FD641C4B2C1B
:103A0000E9DB5C48FFF71EFD5B4D00276C6BEF8028
:103A100001212F813A46C9035848FEF732FA0120A6
:103A2000AF61E861002208214D48FEF72AFA022220
:103A300007212F20FFF7FEF8022207212F20FFF792
:103A4000F9F8FFF773FE2CE0FFF770FEA2B2012138
:103A50002F20FFF7EFF8011E02DD49A0FFF7F2FC6F
:103A6000686BA419844201D8012604E0286B8442C3
:103A700002D30026F643044600276420FFF764FFC4
:103A8000052002210007FEF7F7F9002811D07F1C5E
:103A90000A2FF2DB052002210007FEF7EDF90028CE
:103AA0000CD0052002210007FEF7E6F90128CBD053
:103AB00036E07D20C000FFF747FFEBE70020A8635A
:103AC000EC8001262CE0FFF731FEA2B201212F206D
:103AD000FFF7B0F8011E02DD2CA0FFF7B3FC686B06
:103AE000A419844201D8012604E0286B844202D341
:103AF0000026F643044600276420FFF725FF052033
:103B000002210007FEF7B8F9012802D07F1C0A2F16
:103B1000F2DB052002210007FEF7AEF9012807D0ED
:103B2000052002210007FEF7A7F9002889D1CAE77E
:103B30000020A863E8880199814202D10099A1423E
:103B40000BD0012100940190FFF7A0FE28812246AE
:103B5000E98811A02B6AFFF775FC0026F64370E791
:103B600000040050017800085000002025643A2528
:103B7000753B2000443D0008000000200008005074
:103B8000657272303A25642C000000006572723153
:103B90003A25642C0000000025642C25642C256443
:103BA0000A000000F8B5184C0025A561206A052719
:103BB00001263F07401C01280FD831033846FEF785
:103BC0005BF9002809D1F1023846FEF755F90028C3
:103BD00003D02562A580A661E5610121090338466D
:103BE000FEF74AF901280DD1C1023846FEF744F923
:103BF000002807D00020E661C043A5612062FFF7DE
:103C00009BF96562F8BD00000000002010B5044675
:103C1000114886B084421CD31049098C4906890E8C
:103C2000C9020818A04214D9FEF718F860050ED191
:103C3000022100911F21C9066118C90A02910121C0
:103C400001900391049004A96846FDF785FFFDF7F4
:103C5000C7FF06B010BD000000780008C075FF1F48
:103C600010B516480021026A002A03DB436A5B1C78
:103C7000436200E04162521C1AD08162104B426ADA
:103C80009A4202D84278042A16D141700022D243C7
:103C90004162026281610121C161FFF74DF9BFF309
:103CA0004F8F09490748C860BFF34F8F00BFFDE73A
:103CB000826A521C8262E1E710BD00000000002011
:103CC000881300000400FA0500ED00E010B500299B
:103CD0000AD00878002807D005487844FDF738FE58
:103CE000002801D0002010BD0248784410BD00001B
:103CF000120200000A02000010B500290AD008785C
:103D0000002807D005487844FDF722FE002801D09E
:103D1000002010BD0248784410BD000002020000DF
:103D2000FA01000003B402487844844603BC6047AB
:103D3000AFCFFFFF03B402487844844603BC60471A
:103D400019D2FFFF56312E322070616E64617069A6
:103D500033642E636F6D0A00010002000400060048
:103D600008000A000C001000200040008000000144
:103D70000000000000000000000000000000000043
:103D80000000000000000000000000000000000033
:103D90000100000002000000030000000400000019
:103DA00006000000070000000800000009000000F5
:103DB0000000000000000000000000000000000003
:103DC00001000000020000000300000004000000E9
:103DD0000000000000000000303132333435363747
:103DE000383941424344454640305800303132333F
:103DF000343536373839616263646566403078003F
:103E000004000008000000000000000200010000A3
:103E10001030313233343536373839616263646596
:103E200066787000303132333435363738394142B4
:103E3000434445465850000002400000000000A0E6
:103E40000000000005400000000000C80000000065
:103E50000C4000000000409C0000000019400000E1
:103E60000020BCBE0000000034400000BFC91B8E13
:103E700000000004B5400000504BCFD06607E2CFF1
:103E8000010000006C4100003E8251AADFEEA73421
:103E900001000000D9420000DCB5A0E23A301F97D3
:103EA000FFFFFFFFB4450000FD25A0C8E9A3C14FF7
:103EB000FFFFFFFFFF3F0000000000800000000048
:103EC000FF3F0000000000800000000018400008D4
:103ED00000000020500000000401000868400008B5
:103EE0005000002008090000200100081C0000000C
:103EF00043000000F8FFFFFF0C0000000E00000070
:103F00000F0000002E000000100100004300000020
:103F1000F8FFFFFF004040404040404040404141EA
:103F2000414141404040404040404040404040408E
:103F30004040404040050202020202020202020228
:103F40000202020202202020202020202020200225
:103F500002020202020290909090909010101010B5
:103F60001010101010101010101010101010101051
:103F700002020202020288888888888808080808E5
:103F800008080808080808080808080808080808B1
:103F900002020202400000000000000000000000D9
:103FA0000000000000000000000000000000000011
:103FB0000000000000000000000000000000000001
:103FC00000000000000000000000000000000000F1
:103FD00000000000000000000000000000000000E1
:103FE00000000000000000000000000000000000D1
:103FF00000000000000000000000000000000000C1
:1040000000000000000000000000000000000000B0
:1040100000000000000000000000000000000000A0
:104020000000000000000000000000000000000090
:104030000000000000000000FFFFFFFF0000000084
:104040000000000000000000F70300000A0000006C
:10405000000000000000000001000000040000005B
:08406000000000000024F40040
:04000005080000C12E
:00000001FF
