:0300000002101CCF
:0C101C00787FE4F6D8FD7581790210633E
:101398006F7574004572617365200A007361766524
:1013A800696E6720746F20666C617368203D3D3DEF
:1013B8000A00202C256420002562643A25753B200C
:1013C800002070726573732025642C25642C2564B5
:0713D8000A004F25640A0022
:10118C0002720000026E000002560000016B005457
:10119C00009656312E316270616E646170693364F1
:1011AC002E636F6D0A000169FF025BFFFF025F0097
:1011BC00000274000002700000026700000276005A
:1011CC00000278000002630000016A00015900016E
:1011DC00580002650000026103F7025D0000026C1A
:0211EC00000001
:0A16040000007F027E0FDEFEDFFC17
:01160E0022B9
:1015AC007C007D0A120F2CAA06AB07121604EB1B4B
:0815BC0070011A144A70F422B8
:04125500AD07AC062F
:10125900E47851F618F67850E6FFC3940A7480943E
:1012690080501AAE04EDA807088005CEC313CE132B
:10127900D8F930E00378510678500680D97851E6DC
:1012890054016401700AEC440408F6ED08F6800B79
:10129900AE04AF057852A60608A6077852E6FE08FE
:0212A900E6FF5E
:0112AB002220
:0412FF00AD07AC0685
:10130300E47851F618F67850E6FFC3940A74809493
:1013130080501AAE04EDA807088005CEC313CE1380
:10132300D8F930E00378510678500680D9EC1313CE
:10133300543FFF7851E65401B50705087601800450
:0A134300E47852F67852E6FF7E00CF
:01134D00227D
:080985009000AAEEF0A3EFF0D0
:10098D00E4782EF608F608F608F674FF782CF608CB
:10099D00F6E47832F608F67832E6FE08E6FFC39400
:1009AD004BEE94004003020A54EF25E0FFEE33FEB8
:1009BD0074002FF58274003EF583E0FEA3E0FFF492
:1009CD007002EEF460769000AAE0FAA3E0FBD39FEC
:1009DD00EA9E4023E625E0FF18E633FE74002FF56E
:1009ED008274003EF583E0FEA3E0FFC3EB9F782FFA
:1009FD00F6EA9E18F680217833E625E0FF18E633F7
:100A0D00FE74002FF58274003EF583E0FEA3E0C373
:100A1D009B782FF6EE9A18F6782EE6FE08E6FFD3B1
:100A2D00782DE69F18E69E4013A60608A607783295
:100A3D00E6FE08E6FF7830A60608A607783306E638
:100A4D00187001060209A4ED64016003020BB87869
:100A5D0031E625E0FF18E633FE74002FF5827400B1
:100A6D003EF583E0FAA3E0FB9000AAE0FEA3E0FFD1
:100A7D00D39BEE9A4078EF9BFFEE9AFE7C007D0AA9
:100A8D00120F2C782CA60608A6077831E625E0FF74
:100A9D0018E633FE74022FF58274003EF583E0FEF6
:100AAD00A3E0C39BFFEE9AFE120F2C120F3E782E81
:100ABD00EEF608EFF6D39400EE9400402E18E6FC07
:100ACD0008E6FD782CE6FE08E6FF120F3EAA06ABFF
:100ADD00077830E6FE08E6FF7C007D0A120F2CEF4A
:100AED002B7831F6EE3A18F6020BB8020BA37830DC
:100AFD00E6FE08E6FFC39401EE94005003020BB826
:100B0D00EF25E0FFEE33FE74002FF58274003EF505
:100B1D0083E0FAA3E0FB9000AAE0FEA3E0FFC3EBA5
:100B2D009FFFEA9EFE7C007D0A120F2C782CA606F4
:100B3D0008A6077831E625E0FF18E633FE74FE2F90
:100B4D00F58274FF3EF583E0FEA3E0FFC3EB9FFF4C
:100B5D00EA9EFE120F2C120F3E782EEEF608EFF6DF
:100B6D00D39400EE9400402E18E6FC08E6FD782C98
:100B7D00E6FE08E6FF120F3EAA06AB077830E6FE4A
:100B8D0008E6FF7C007D0A120F2CC3EF9B7831F62F
:100B9D00EE9A18F680157830E6FE08E6FF7C007DAB
:100BAD000A120F2C7830A60608A607D37831E694E2
:100BBD00FF18E69403400576030876FE7830E6FECE
:030BCD0008E6FF38
:010BD0002202
:030003000206AC46
:1006AC00C0E0C083C082C0D075D000C000C001C003
:1006BC0002C003C004C005C006C007787906E6185E
:1006CC007001067869E62402602324FEB40600401B
:1006DC000302096C9006E7F8282873020714020736
:1006EC002E0207D502081A02094402096620B20339
:1006FC0002096C786976FF78787600087600785B6A
:10070C0076FF0876FF02096620B20C20B3097869DF
:10071C00760178650207CD787906E6187001060235
:10072C00096C20B20302096C20B3030207C078697C
:10073C00760208E6F9FB7A00700478768008EB64A0
:10074C00014A70137870E6FE08E6FF1212557863C2
:10075C00A60608A6078068E9FFC3940274809480FB
:10076C00401AEF944D748094805011E925E024FCDC
:10077C00F582E434FFF583E0FEA38020E9FF7E00E0
:10078C00C3944D748094804036EF9461748094804F
:10079C00502D744929F582E43400F583E0FF786329
:1007AC00EEF608EFF61212557863A60608A607783F
:1007BC006A06800B78697603785F76000876007895
:1007CC0074760008760002096C30B20302096C786A
:1007DC0074E6FE08E6FFD3940AEE9400400B1876FC
:1007EC0000087600787802095BC3740A9FFF78636F
:1007FC00E6FE08E6A807088005CEC313CE13D8F989
:10080C001392B3787506E61870010602096C20B2D3
:10081C000302096C30B3237875E6FFC3740A9FFF9B
:10082C007E007401A807088005C333CE33CED8F9F7
:10083C00FFEE785F46F6EF0846F6787506E6187018
:10084C000106D37875E6940A18E694005003020961
:10085C006C760008760078697605C2A8D2AAD2B365
:10086C00785FE6FE08E6FF1212FFEF4E70030209F6
:10087C006C785FE65403F6C3785BE6648094804042
:10088C001C785FE6FE08E6FF9484EE9403500E7825
:10089C005BA60608A607786976FD02096C785FE608
:1008AC00FE08E6FFC3944BEE940050207870E6FCF3
:1008BC0008E6FDEF25E0FFEE33FE74002FF58274A1
:1008CC00003EF583ECF0A3EDF002096C785FE6FED8
:1008DC0008E6FFBE030ABFFC07786A760102096CC2
:1008EC00BE0309BFFB06785976018074BE0309BFAD
:1008FC00F806786A764D8068BE0309BFFD06785904
:10090C007602805CBE0309BFF906786A76028050D5
:10091C00BE0309BFFA06786A76008044BE0309BF9D
:10092C00FE06785976048038EFF47003EE64037099
:10093C002F785BF608F6802820B225787506E61825
:10094C00700106D37875E6940918E6940040117688
:10095C0000087600786976058006C2A8D2AAD2B3C0
:10096C00D007D006D005D004D003D002D001D000DF
:09097C00D0D0D082D083D0E0324B
:0300130002111CBB
:10111C00C0E0C0D075D000C000C006C007C2A8781F
:10112C0069E604600314701520B31230B20F7869AD
:10113C00760078747600087600C2AAD2A830B3354F
:10114C0030B2327869E6FF3395E0FEBEFF16BFFD84
:10115C0013C2A8C2AAC2B378787600087600786960
:10116C0076FC8011786976FFC2A8D2AAD2B37878BF
:10117C007600087600D007D006D000D0D0D0E03270
:0712AC007823E6FE08E6FFCF
:0412B300AB07AA06D5
:1012B7009000AA7411F0E4FDD294D295C294C2951D
:1012C700EAC313139293D295C295EA139293D295D8
:1012D700C295AE02EBA805088005C333CE33CED83E
:1012E700F930E704D2938002C2930DD295EDC394EF
:0712F700087480948040D9C7
:0112FE0022CD
:1010A8007869E6FF3395E0FEC364809480400A784F
:1010B8007906E6187009068006E47878F608F6BE20
:1010C800FF0DBFFF0A786606E6187009068006E479
:1010D8007865F608F6D37879E6948818E69413408C
:1010E8000E7869E6FF3395E0FEBEFF11BFFE0E786D
:1010F80059E6FF3395E0FEEF64044E7016E4785924
:10110800F67878F608F6786976FFC2A8D2AAD2B33C
:04111800120000229F
:1015C400438E40E4F589758DCC758BCCD28ED2AB2D
:0315D400D2AF2271
:100D9600E4782CF67869E6FF3395E0FEBEFF10BFD7
:100DA600FC0D76FE7F017E001215ACD2A8C2AA7891
:100DB60069E6FF3395E0FEEF64FE7002EEF4702CF8
:100DC600D37871E694F818E694024002C2B3785BD1
:100DD600E6FE08E6FF64014E6012D37877E69F18B8
:100DE600E69E5004D2B38004C2B3C2B3786D06E661
:100DF60018700106D3786DE694D018E6940740265D
:100E06007861E6FE08E6FF7870EEF6FE08EFF6FF7C
:100E16007876A60608A607E4786CF608F67BFF7ACD
:100E26001379981211FB1210A87859E6FF3395E052
:100E3600FEEF64024E701876037BFF7A13799C12DC
:100E460011FBE4FFFE12153E7F647E000215AC78AE
:100E560059E6FF3395E0FEEF64034E706AF67BFFBA
:100E66007A1379A41211FBE4782CF6782CE6FFC3EA
:100E7600944B748094804003020F00EF75F002A437
:100E8600FFAEF02400F974003EFA7B019000AFE457
:100E9600F0A37402F012141E7BFF7A1379BA782C31
:100EA600E625E02400F582E43400F583E0FFA3E0C4
:100EB6009000ADCFF0A3EFF01211FB7F017E001280
:100EC60015AC782C0680A47859E6FF3395E0FEEF42
:100ED60064014E7025F6782CF6782CE6FFC3944B09
:100EE600748094805014EF25E02400F582E43400E9
:0A0EF600F58374FFF0A3F00680DF1F
:010F000022CE
:10038B00E47822F608F608F608F608F6782BF6124B
:10039B00155E74FF785BF608F6D2AFC288C2A8C2AE
:1003AB008A1215C4D2AAC290C2917F647E00121524
:1003BB00ACE47822F67822E6FF3395E0FEC3EF94A7
:1003CB004BEE64809480505CEF25E0FFEE33FEC073
:1003DB0006C00774002FF974003EFA7B019000AF42
:1003EB00E4F0A37402F0D007D0061213DF7BFF7A80
:1003FB001379C07822E6FF9000ADF03395E0FEEF65
:10040B0025E0FFEE33FE74002FF58274003EF5837A
:10041B00E0FFA3E09000AECFF0A3EFF01211FB785A
:10042B0022068091D291D2907B017A00799612119B
:10043B00FB785DE6FE08E6FF7823A60608A607E430
:10044B007870F608F67876F608F6782B7601120DAA
:10045B009620B7030204E7120D961212AC782BE626
:10046B00FF3395E0FE7824EF26F618EE36F6785D2E
:10047B00E6FE08E6FF7823E6FC08E6FDD39FEC9E3C
:10048B005006782B760180127861E6FE08E6FFC3F2
:10049B00ED9FEC9E400B782B76FF7823A60608A6E3
:1004AB0007E47822F67822E6FF3395E0FEC3EF945B
:1004BB000AEE64809480500912160430B70306804C
:1004CB00E420B78DE4786CF608F67823E6FE08E6B0
:1004DB00FF7870A60608A607782B760130B70302C3
:1004EB000459120D961212AC782BE6FF3395E0FEF1
:1004FB007824EF26F618EE36F6785DE6FE08E6FF72
:10050B007823E6FC08E6FDD39FEC9E5006782B760D
:10051B000180127861E6FE08E6FFC3ED9FEC9E407A
:10052B000B782B76FF7823A60608A607E47822F62D
:10053B007822E6FF3395E0FEC3EF940AEE648094D5
:10054B0080500912160420B7030680E430B78DE4FF
:10055B00786CF608F67823E6FE08E6FF08A6060890
:10056B00A6077869E6FF3395E0FEEF64FE7002EEB6
:10057B00F46003020646785CE664011846600302E9
:10058B0006467870E6FE08E6FF787326F618EE3618
:10059B00F6786F06E618700106C3786FE6940118BB
:1005AB00E694005003020646E4F608F67856E6FC9D
:1005BB0008E6FD7872E6FA08E6FBD39DEA9C400854
:1005CB00EB9DFDEA9CFC800F7856E6FC08E6C378B1
:1005DB007396FDEC1896FCC3ED9404EC9400503B21
:1005EB00C3EF94F8EE94025032D2B37BFF7A1379B7
:1005FB00C97870E6FF08E69000ADCFF0A3EFF008E6
:10060B00E6FF08E6A3CFF0A3EFF07856E6FF08E687
:10061B00A3CFF0A3EFF01211FB8002C2B37872E606
:10062B00FE08E6FF7857667003EE1866600778568B
:10063B00A60608A607E47872F608F67827E6FE0801
:10064B00E67871667003EE186670107829E6FE087E
:10065B00E67826667003EE1866603F7870E6FE0853
:10066B00E6FF7827A60608A6077825E6FC08E6FD30
:10067B007829A60408A6057D011209857876A606B9
:10068B0008A6077BFF7A1379DA7870E6FF08E69005
:10069B0000ADCFF0A3EFF01211FB782B76FF020425
:0106AB0059F5
:0C11EE00011000010F00010D00010E00B7
:10155E00759850438E01438E0475D7BF75D6FF43E1
:0B156E008E10D2ACD29CC29FD29E22F5
:0B15F8003098FDC298781DA699E6FF10
:0116030022C4
:08160F008F993099FDC2992268
:1015D700120F01FF600C12160F740129F9E43AFA91
:0315E70080EE2271
:03002300020BD1FC
:100BD100C0E0C0F0C083C082C0D075D000C000C0EA
:100BE10001C002C003C004C005C006C007209803AD
:100BF100020D76C298900103E0FBA3E0FAA3E0F9AD
:100C0100E599120F1A900103E0FBA3E0FAA3E0F9C2
:0A0C1100120F01643B6003020D4D59
:100C1B007855F67811E6062413F8760078127602EA
:100C2B00785476007854E6FFC37811964003020D92
:100C3B004474132FF8E6FE6452600DEE64416008B5
:100C4B00EE644C6003020D3E74142FF8E6FEB456AE
:100C5B0007780F7602020D4474152FF8E6FFFD336B
:100C6B0095E0FCC3ED9430EC648094804025EEFD60
:100C7B003395E0FCC3ED9430EC64809480401478A1
:100C8B0054E62414F8E624D075F00AA4FEEF24D021
:100C9B002E801B7854E62414F8E6FFFD3395E0FC18
:100CAB00C3ED9430EC648094804013EF24D0FF901C
:100CBB000103E0FBA3E0FAA3E0F9EF120F1A900196
:100CCB0003E0FBA3E0FAA3E0F9120F01D3946474E1
:100CDB008094805064C374809480405D7854E62483
:100CEB0013F8E6FFB45216780F7601120F01FED3FC
:100CFB00940074809480404108A606803CEFB44178
:100D0B000C780F7601120F01780DF6802C7854E6D3
:100D1B002413F8E6B44C22780F7601120F01FF7EF4
:100D2B000064017005187601800FEF4E700B780E82
:100D3B00F68006785406020C2F781276001876008F
:100D4B008029900103E0FBA3E0FAA3E0F9120F0165
:100D5B00FF7811E6062413F8A6077812760118E639
:100D6B00D3940A7480948040027600309902C29921
:100D7B00D007D006D005D004D003D002D001D000CC
:0B0D8B00D0D0D082D083D0F0D0E03276
:0B11FB009000AAEBF0A3EAF0A3E9F0DB
:10120600782D76010876000876AD9000AAE0F9A35D
:10121600E0FAA3E09000D5C9F0A3EAF0A3E9F078DC
:101226002D860308E6FA08E6F9A3EBF0A3EAF0A395
:10123600E9F07B007A00793012134E7B007A007950
:0E124600301215D7782DA60308760008760022
:011254002277
:02161E000022A8
:07161700D29300D2940022DF
:0D000600D29400D29312161EC29302161E51
:0D001600C29300D29412161ED29302161E41
:10159300C29400300904C2938002D29300D2941201
:0915A300161EC29400D29300222E
:081579001200067FEA1214C8FB
:10158100D29412161E309305C29400C322C2940055
:02159100D32263
:1014C800E4FEEEC39408748094805019C29400EF2F
:1014D80030E705D293008003C29300D29400EF2531
:0B14E800E0FF0E80DDC29400D29300F4
:0114F30022D6
:10145D00C29400D29300E4FEEEFD7C00C3940874A8
:10146D008094805025D29400EF3093054401FF8085
:10147D000354FEFF00C29400C3ED9407EC64809406
:0A148D00805004EF25E0FF0E80CE32
:011497002232
:10151B00AB07121579400122AF031214C8121581C3
:10152B00400122AF051214C812158140012212008E
:03153B0016D322A2
:02149800AD079E
:10149A0012157940037F0022AF051214C8C209123F
:1014AA0015931200067FEB1214C812158140037FB0
:0D14BA00002212145DC209121593120016D3
:0114C7002202
:0E15EA00E4F5C7F5C5F5C675C3FF75C4FF224D
:1013DF00AD07AC06C2AF75C78375C501ECF5C3AFDA
:1013EF00058FC475C65A75C6A500E5C2120F1A0D32
:1013FF00BD00010C740129F9E43AFA9000AF74FFB3
:0F140F00F5F0120F9345F070D01215EAD2AF220C
:10153E00AD07AC06C2AFECF5C3AF058FC475C7835C
:10154E0075C50375C65A75C6A5001215EAD2AF2227
:10141E00AD07AC06C2AF75C78375C502ECF5C3AF99
:10142E00058FC4120F01F5C275C65A75C6A5000DFB
:10143E00BD00010C740129F9E43AFA9000AF74FF73
:0F144E00F5F0120F9345F070D01215EAD2AF22CD
:1010280002038BE493A3F8E493A34003F68001F250
:1010380008DFF48029E493A3F85407240CC8C333C9
:10104800C4540F4420C8834004F456800146F6DF98
:10105800E4800B010204081020408090118CE47E8B
:10106800019360BCA3FF543F30E509541FFEE4938D
:10107800A360010ECF54C025E060A840B8E493A354
:10108800FAE493A3F8E493A3C8C582C8CAC583CA7F
:10109800F0A3C8C582C8CAC583CADFE9DEE780BE37
:0111FA0000F4
:100F0100BB010689828A83E0225002E722BBFE02EE
:090F1100E32289828A83E4932221
:100F1A00BB010689828A83F0225002F722BBFE01B6
:020F2A00F322B0
:100F2C00EF8DF0A4A8F0CF8CF0A428CE8DF0A42ED9
:020F3C00FE2293
:100F3E00BC000BBE0029EF8DF084FFADF022E4CC97
:100F4E00F875F008EF2FFFEE33FEEC33FCEE9DEC60
:100F5E00984005FCEE9DFE0FD5F0E9E4CEFD22EDA6
:100F6E00F8F5F0EE8420D21CFEADF075F008EF2FF0
:100F7E00FFED33FD4007985006D5F0F222C398FDE1
:050F8E000FD5F0EA227E
:100F9300C5F0F8A3E028F0C5F0F8E58215827002E9
:060FA3001583E038F02286
:10134E009000D5E0FFA3E0FEA3E0CF9000DEF0A377
:10135E00EEF0A3EFF09000D8E0CBF0A3E0CAF0A33C
:10136E00E0C9F07F229000E1AD82AC83120F018DB7
:10137E00828C83F0A309E970010ADFEC9000D8E0BB
:0A138E00FBA3E0FAA3E0F902008BD4
:10002600E50824DEF582E43400F583E00508229035
:1000360000DB3007039000DEE475F001120FD602F4
:100046000F012000E97F2ED2008018EF540F249074
:10005600D43440D4FF30040BEF24BFB41A0050034D
:100066002461FFE50960021509050CE50C7002051F
:100076000B30070E9000DBE475F001120FD6EF028D
:100086000F1A0214F47403D2078003E4C207F508BA
:100096009000DB120FEDE4F509F50BF50CE50960B0
:1000A600077F2012006980F5750AFFC201C200C2EF
:1000B60002C203C205C206C208120035FF700D3027
:1000C60007057F0012007AAF0CAE0B22B4255FC283
:1000D600D5C204120035FF24D0B40A00501A75F0B8
:1000E6000A780930D50508B6FF0106C6A426F6200B
:1000F600D5047002D20380D924CFB41A00EF50047D
:10010600C2E5D20402027BD20180C6D20080C0D2F0
:100116000280BCD2D580BAD20580B47F2012006995
:100126002002077401B5090040F1120026FF1200F3
:10013600690200A3D208D2068095120026FB12009F
:1001460026FA120026F94A4B7006794C7A037BFF91
:1001560020022EE509602A7E008E82758300120F2A
:10016600A960060EEE650A70F0C2D5EBC0E0EAC0E3
:10017600E0E9C0E0EE1202C2D0E0F9D0E0FAD0E049
:10018600FB120F01FF60AAEBC0E0EAC0E0E9C0E0A5
:10019600120069D0E02401F9D0E03400FAD0E0FB87
:1001A600E50A0460DCD50AD980877BFF7A0279BE2E
:1001B600D202809C791080027908C206C2088008A3
:1001C600D2D5790A8004790AC2D5E50A047002F507
:1001D6000AE4FAFDFEFF120026FC7B08200113123A
:1001E6000026FD7B1030000A120026FE120026FFB4
:1001F6007B20EC3382D592D55013C3E43000069FA2
:10020600FFE49EFEE42001039DFDE49CFCE4CBF8A4
:10021600C201EC700CCFCECDCCE824F8F870F38098
:1002260017C3EF33FFEE33FEED33FDEC33FCEB3358
:10023600FB994002FB0FD8E9EB300105F8D0E0C48A
:1002460048B201C0E00AEC4D4E4F78207B0070C2E8
:10025600EAB50A0040BCC0E01202C4D0F0D0E020EB
:100266000104C4C0E0C4B201C0F0120052D0F0D5FF
:10027600F0EB0200A3120FF601405301BA58011128
:100286004C010D4201BE4F01C64401C64901264339
:0802960001CC5501B04601B096
:10029E004501B047036C5001152D01192E013C2B61
:1002AE00011D23013A2003552A00D54800000134D0
:1002BE003F3F3F00790AA2D5200314300509B9103B
:1002CE00020404B9080104A2D5200602500104203C
:1002DE0002689202B509005034C0E07F2030031945
:1002EE007F30A20272067205500F12031BC202C2A9
:1002FE0006C205C2087F30800F300503E9C0E01248
:10030E000069300503D0E0F9D0E0B509CC3005170F
:10031E007F30B9100C1200697F583004077F788047
:10032E0003B908031200693002057F2D0200697FB0
:10033E00202008F87F2B2006F322920280CF286E11
:10034E00756C6C2900D2011200263001F8C20178BA
:10035E000930D50108F60200D52D50434958120038
:10036E00262403B405004001E49003679312005A5B
:0D037E00743A12005AD2037509040201BA44
:100FA900BB010CE58229F582E5833AF583E02250FD
:100FB90006E92582F8E622BBFE06E92582F8E22247
:0D0FC900E58229F582E5833AF583E4932261
:100FD600F8E0FBA3A3E0F925F0F0E58215827002A4
:070FE6001583E0FA38F02248
:090FED00EBF0A3EAF0A3E9F02205
:100FF600D083D082F8E4937012740193700DA3A38A
:1010060093F8740193F5828883E47374029368609D
:06101600EFA3A3A380DF9D
:1014F400EFB40A07740D1214FF740A309811A899F6
:10150400B8130CC2983098FDA899C298B811F63057
:0715140099FDC299F599222F
:00000001FF
