:03000000020E905D
:0C0E9000787FE4F6D8FD758171020ED762
:101243004572617365200A0073617665696E672074
:10125300746F20666C617368203D3D3D0A00202C4D
:10126300256420002562643A25753B20004F2564E0
:0B1273002C4625642C532562640A0001
:100F820001670054009656312E312070616E646103
:100F9200706933642E636F6D0A000165FF025B00A6
:100FA20000026C0000026A000002630000026E0090
:100FB2000002700000025F0000016600015700019C
:100FC200560002610000025D03F702590000026848
:020FD20000001D
:0A14250000007F027E0FDEFEDFFCF8
:01142F00229A
:1013CD007C007D0A120C96AA06AB07121425EB1BA6
:0813DD0070011A144A70F42299
:04103B00AD07AC064B
:10103F00E47851F618F67850E6FFC3940A7480945A
:10104F0080501AAE04EDA807088005CEC313CE1347
:10105F00D8F930E00378510678500680D97851E6F8
:10106F0054016401700AEC440408F6ED08F6800B95
:10107F00AE04AF057852A60608A6077852E6FE081A
:02108F00E6FF7A
:01109100223C
:0410E500AD07AC06A1
:1010E900E47851F618F67850E6FFC3940A748094B0
:1010F90080501AAE04EDA807088005CEC313CE139D
:10110900D8F930E00378510678500680D9EC1313EA
:10111900543FFF7851E65401B5070508760180046C
:0A112900E47852F67852E6FF7E00EB
:011133002299
:08060F009000AAEEF0A3EFF049
:10061700E4782EF608F608F608F674FF782CF60844
:10062700F6E47832F608F67832E6FE08E6FFC39479
:100637004BEE940040030206DEEF25E0FFEE33FEAB
:1006470074002FF58274003EF583E0FEA3E0FFF40B
:100657007002EEF460769000AAE0FAA3E0FBD39F65
:10066700EA9E4023E625E0FF18E633FE74002FF5E7
:100677008274003EF583E0FEA3E0FFC3EB9F782F73
:10068700F6EA9E18F680217833E625E0FF18E63370
:10069700FE74002FF58274003EF583E0FEA3E0C3ED
:1006A7009B782FF6EE9A18F6782EE6FE08E6FFD32B
:1006B700782DE69F18E69E4013A60608A60778320F
:1006C700E6FE08E6FF7830A60608A607783306E6B2
:1006D7001870010602062EED6401600302084278D5
:1006E70031E625E0FF18E633FE74002FF58274002B
:1006F7003EF583E0FAA3E0FB9000AAE0FEA3E0FF4B
:10070700D39BEE9A4078EF9BFFEE9AFE7C007D0A22
:10071700120C96782CA60608A6077831E625E0FF86
:1007270018E633FE74022FF58274003EF583E0FE6F
:10073700A3E0C39BFFEE9AFE120C96120CA8782E2C
:10074700EEF608EFF6D39400EE9400402E18E6FC80
:1007570008E6FD782CE6FE08E6FF120CA8AA06AB11
:10076700077830E6FE08E6FF7C007D0A120C96EF5C
:100777002B7831F6EE3A18F602084202082D783047
:10078700E6FE08E6FFC39401EE9400500302084218
:10079700EF25E0FFEE33FE74002FF58274003EF57F
:1007A70083E0FAA3E0FB9000AAE0FEA3E0FFC3EB1F
:1007B7009FFFEA9EFE7C007D0A120C96782CA60607
:1007C70008A6077831E625E0FF18E633FE74FE2F0A
:1007D700F58274FF3EF583E0FEA3E0FFC3EB9FFFC6
:1007E700EA9EFE120C96120CA8782EEEF608EFF68B
:1007F700D39400EE9400402E18E6FC08E6FD782C12
:10080700E6FE08E6FF120CA8AA06AB077830E6FE5C
:1008170008E6FF7C007D0A120C96C3EF9B7831F641
:10082700EE9A18F680157830E6FE08E6FF7C007D24
:100837000A120C967830A60608A607D37831E694F4
:10084700FF18E69403400576030876FE7830E6FE47
:0308570008E6FFB1
:01085A00227B
:0300030002038B6A
:10038B00C0E0C083C082C0D075D000C000C001C027
:10039B0002C003C004C005C006C007787106E6188A
:1003AB007001067865E61460391470030204941426
:1003BB0070030204D91470030205CE1470030205F6
:1003CB00F0240560030205F620B20C20B309786512
:1003DB007601786102048C787106E61870010602CA
:1003EB0005F620B2030205F620B30302047F7865FD
:1003FB00760208E6F9FB7A007004786E8008EB64ED
:10040B00014A7013786AE6FE08E6FF12103B785F2C
:10041B00A60608A6078068E9FFC39402748094803F
:10042B00401AEF944D748094805011E925E024FC20
:10043B00F582E434FFF583E0FEA38020E9FF7E0024
:10044B00C3944D748094804036EF94617480948093
:10045B00502D744929F582E43400F583E0FF785F71
:10046B00EEF608EFF612103B785FA60608A60778A3
:10047B006606800B78657603785B760008760078E5
:10048B006C76000876000205F630B2030205F678AA
:10049B006CE6FE08E6FFD3940AEE9400400B187648
:1004AB000008760078700205E5C3740A9FFF785F39
:1004BB00E6FE08E6A807088005CEC313CE13D8F9CD
:1004CB001392B3786D06E6187001060205F620B29A
:1004DB00030205F630B323786DE6FFC3740A9FFF62
:1004EB007E007401A807088005C333CE33CED8F93C
:1004FB00FFEE785B46F6EF0846F6786D06E6187069
:10050B000106D3786DE6940A18E6940050030205B1
:10051B00F6760008760078657605C2A8D2AAD2B323
:10052B00785BE6FE08E6FF1210E5EF4E700302055E
:10053B00F6785BE65403F6E6FE08E6FFC3944BEE53
:10054B0094005020786AE6FC08E6FDEF25E0FFEE0C
:10055B0033FE74002FF58274003EF583ECF0A3EDAF
:10056B00F00205F6785BE6FE08E6FFBE0309BFFC6A
:10057B0006786676018074BE0309BFFB0678577652
:10058B00018068BE0309BFF8067866764D805CBEB5
:10059B000309BFFD06785776028050BE0309BFF9E9
:1005AB0006786676028044BE0309BFFA0678667643
:1005BB00008038EF64FE7003EE6403702E7857767C
:1005CB0004802820B225786D06E618700106D378D2
:1005DB006DE6940918E694004011760008760078D1
:1005EB006576058006C2A8D2AAD2B3D007D006D0B2
:1005FB0005D004D003D002D001D000D0D0D082D00F
:04060B0083D0E03286
:0300130002117E59
:10117E00C0E0C0D075D000C000C2A87865E604609B
:10118E000314701520B31230B20F78657600786CA8
:10119E007600087600C2AAD2A830B31430B2117805
:1011AE006576FFC2A8D2AAD2B37870760008760010
:0711BE00D000D0D0D0E032D8
:071092007823E6FE08E6FFEB
:04109900AB07AA06F1
:10109D009000AA7411F0E4FDD294D295C294C29539
:1010AD00EAC313139293D295C295EA139293D295F4
:1010BD00C295AE02EBA805088005C333CE33CED85A
:1010CD00F930E704D2938002C2930DD295EDC3940B
:0710DD00087480948040D9E3
:0110E40022E9
:100F1C007865E6FF3395E0FEC364809480400A78E0
:100F2C007106E6187009068006E47870F608F6BEBD
:100F3C00FF0DBFFF0A786206E6187009068006E40A
:100F4C007861F608F6D37871E6948818E694135015
:100F5C000E7857E6FF3395E0FEEF64044E7016E40E
:100F6C007857F67870F608F6786576FFC2A8D2AA9C
:060F7C00D2B312000022B6
:1013E500438E40E4F589758DCC758BCCD28ED2AB0E
:0313F500D2AF2252
:100D8600E4782CF6786906E618700106D37869E6E9
:100D9600948818E69413401D785DE6FE08E6FF7811
:100DA6006AEEF6FE08EFF6FF786EA60608A607E4DA
:100DB6007868F608F6120F1C7857E6FF3395E0FEC2
:100DC600EF64024E701876037BFF7A127943120F96
:100DD600E1E4FFFE12135F7F647E000213CD7857B5
:100DE600E6FF3395E0FEEF64034E706AF67BFF7A0A
:100DF60012794B120FE1E4782CF6782CE6FFC394B7
:100E06004B748094804003020E8FEF75F002A4FFAE
:100E1600AEF02400F974003EFA7B019000AFE4F0D6
:100E2600A37402F01212047BFF7A127961782CE621
:100E360025E02400F582E43400F583E0FFA3E0908A
:100E460000ADCFF0A3EFF0120FE17F017E00121389
:100E5600CD782C0680A47857E6FF3395E0FEEF6444
:100E6600014E7025F6782CF6782CE6FFC3944B7469
:100E76008094805014EF25E02400F582E43400F5D8
:090E86008374FFF0A3F00680DF85
:010E8F002240
:10085B00E47822F608F608F608F608F6782BF61276
:10086B00137FD2AFC288C2A8C28A1213E5D2AAC222
:10087B0090C2917F647E001213CDE47822F6782229
:10088B00E6FF3395E0FEC3EF944BEE64809480500B
:10089B005CEF25E0FFEE33FEC006C00774002FF9B6
:1008AB0074003EFA7B019000AFE4F0A37402F0D029
:1008BB0007D0061211C57BFF7A1279677822E6FF03
:1008CB009000ADF03395E0FEEF25E0FFEE33FE74C4
:1008DB00002FF58274003EF583E0FFA3E09000AE9D
:1008EB00CFF0A3EFF0120FE17822068091D291D2D4
:1008FB00907B017A007996120FE17859E6FE08E6B3
:10090B00FF7823A60608A607E4786AF608F6786E41
:10091B00F608F6782B7601120D8620B7030209AA8A
:10092B00120D86121092782BE6FF3395E0FE782499
:10093B00EF26F618EE36F67859E6FE08E6FF782332
:10094B00E6FC08E6FDD39FEC9E5006782B760180E3
:10095B0012785DE6FE08E6FFC3ED9FEC9E400B7838
:10096B002B76FF7823A60608A607E47822F67822D2
:10097B00E6FF3395E0FEC3EF940AEE64809480505B
:10098B000912142530B7030680E420B78D7823E6CF
:10099B00FE08E6FF786AA60608A607782B760130D4
:1009AB00B703020922120D86121092782BE6FF3341
:1009BB0095E0FE7824EF26F618EE36F67859E6FE2B
:1009CB0008E6FF7823E6FC08E6FDD39FEC9E500675
:1009DB00782B76018012785DE6FE08E6FFC3ED9F6B
:1009EB00EC9E400B782B76FF7823A60608A607E42F
:1009FB007822F67822E6FF3395E0FEC3EF940AEEF9
:100A0B0064809480500912142520B7030680E430CB
:100A1B00B78DE47868F608F67823E6FE08E6FF085B
:100A2B00A60608A60708E6FE08E6786B667003EED6
:100A3B00186670107829E6FE08E67826667003EED5
:100A4B0018666050786AE6FE08E6FF7827A6060867
:100A5B00A6077825E6FC08E6FD7829A60408A60576
:100A6B007D0112060F786EA60608A6077BFF7A1289
:100A7B007970786AE6FF08E69000ADCFF0A3EFF04F
:100A8B007825E6FF08E6A3CFF0A3EFF07865E6A3A1
:0B0A9B00F0120FE1782B76FF02092219
:0C0FD400011000010F00010D00010E00D3
:10137F00759850438E01438E0475D7BF75D6FF43C2
:0B138F008E10D2ACD29CC29FD29E22D6
:0B1419003098FDC298781DA699E6FFF0
:0114240022A5
:081430008F993099FDC2992249
:1013F800120C6BFF600C121430740129F9E43AFAEC
:0314080080EE2251
:03002300020AA628
:100AA600C0E0C0F0C083C082C0D075D000C000C016
:100AB60001C002C003C004C005C006C007209803D9
:100AC600020C4BC298900103E0FBA3E0FAA3E0F905
:100AD600E599120C84900103E0FBA3E0FAA3E0F988
:0A0AE600120C6B643B6003020C224B
:100AF0007855F67811E6062413F876007812760217
:100B0000785476007854E6FFC37811964003020CBF
:100B10001974132FF8E6FE6452600DEE644160080C
:100B2000EE644C6003020C1374142FF8E6FEB45606
:100B300007780F7602020C1974152FF8E6FFFD33C3
:100B400095E0FCC3ED9430EC648094804025EEFD8C
:100B50003395E0FCC3ED9430EC64809480401478CD
:100B600054E62414F8E624D075F00AA4FEEF24D04D
:100B70002E801B7854E62414F8E6FFFD3395E0FC44
:100B8000C3ED9430EC648094804013EF24D0FF9048
:100B90000103E0FBA3E0FAA3E0F9EF120C8490015B
:100BA00003E0FBA3E0FAA3E0F9120C6BD3946474A6
:100BB0008094805064C374809480405D7854E624AF
:100BC00013F8E6FFB45216780F7601120C6BFED3C1
:100BD000940074809480404108A606803CEFB441A4
:100BE0000C780F7601120C6B780DF6802C7854E699
:100BF0002413F8E6B44C22780F7601120C6BFF7EBA
:100C00000064017005187601800FEF4E700B780EAE
:100C1000F68006785406020B0478127600187600E7
:100C20008029900103E0FBA3E0FAA3E0F9120C6B2A
:100C3000FF7811E6062413F8A6077812760118E665
:100C4000D3940A7480948040027600309902C2994D
:100C5000D007D006D005D004D003D002D001D000F8
:0B0C6000D0D0D082D083D0F0D0E032A2
:0B0FE1009000AAEBF0A3EAF0A3E9F0F7
:100FEC00782D76010876000876AD9000AAE0F9A37A
:100FFC00E0FAA3E09000D5C9F0A3EAF0A3E9F078F9
:10100C002D860308E6FA08E6F9A3EBF0A3EAF0A3B1
:10101C00E9F07B007A0079301211347B007A007988
:0E102C00301213F8782DA6030876000876001F
:01103A002293
:02143F00002289
:07143800D29300D2940022C0
:0D000600D29400D29312143FC29302143F13
:0D001600C29300D29412143FD29302143F03
:1013B400C29400300904C2938002D29300D29412E2
:0913C400143FC29400D2930022F0
:08139A001200067FEA1212E9BD
:1013A200D29412143F309305C29400C322C2940017
:0213B200D32244
:1012E900E4FEEEC39408748094805019C29400EF10
:1012F90030E705D293008003C29300D29400EF2512
:0B130900E0FF0E80DDC29400D29300D4
:0113140022B6
:10127E00C29400D29300E4FEEEFD7C00C394087489
:10128E008094805025D29400EF3093054401FF8066
:10129E000354FEFF00C29400C3ED9407EC648094E7
:0A12AE00805004EF25E0FF0E80CE13
:0112B8002213
:10133C00AB0712139A400122AF031212E91213A247
:10134C00400122AF051212E91213A2400122120031
:03135C0016D32283
:0212B900AD077F
:1012BB0012139A40037F0022AF051212E9C20912E2
:1012CB0013B41200067FEB1212E91213A240037F34
:0D12DB00002212127EC2091213B412001676
:0112E80022E3
:0E140B00E4F5C7F5C5F5C675C3FF75C4FF222D
:1011C500AD07AC06C2AF75C78375C501ECF5C3AFF6
:1011D500058FC475C65A75C6A500E5C2120C840DE7
:1011E500BD00010C740129F9E43AFA9000AF74FFCF
:0F11F500F5F0120CFD45F070D012140BD2AF22A2
:10135F00AD07AC06C2AFECF5C3AF058FC475C7833D
:10136F0075C50375C65A75C6A50012140BD2AF22E8
:10120400AD07AC06C2AF75C78375C502ECF5C3AFB5
:10121400058FC4120C6BF5C275C65A75C6A5000DB0
:10122400BD00010C740129F9E43AFA9000AF74FF8F
:0F123400F5F0120CFD45F070D012140BD2AF2262
:100E9C0002085BE493A3F8E493A34003F68001F209
:100EAC0008DFF48029E493A3F85407240CC8C33357
:100EBC00C4540F4420C8834004F456800146F6DF26
:100ECC00E4800B0102040810204080900F82E47E25
:100EDC00019360BCA3FF543F30E509541FFEE4931B
:100EEC00A360010ECF54C025E060A840B8E493A3E2
:100EFC00FAE493A3F8E493A3C8C582C8CAC583CA0D
:100F0C00F0A3C8C582C8CAC583CADFE9DEE780BEC4
:010FE0000010
:100C6B00BB010689828A83E0225002E722BBFE0287
:090C7B00E32289828A83E49322BA
:100C8400BB010689828A83F0225002F722BBFE014F
:020C9400F32249
:100C9600EF8DF0A4A8F0CF8CF0A428CE8DF0A42E72
:020CA600FE222C
:100CA800BC000BBE0029EF8DF084FFADF022E4CC30
:100CB800F875F008EF2FFFEE33FEEC33FCEE9DECF9
:100CC800984005FCEE9DFE0FD5F0E9E4CEFD22ED3F
:100CD800F8F5F0EE8420D21CFEADF075F008EF2F89
:100CE800FFED33FD4007985006D5F0F222C398FD7A
:050CF8000FD5F0EA2217
:100CFD00C5F0F8A3E028F0C5F0F8E5821582700282
:060D0D001583E038F0221E
:101134009000D5E0FFA3E0FEA3E0CF9000DEF0A393
:10114400EEF0A3EFF09000D8E0CBF0A3E0CAF0A358
:10115400E0C9F07F229000E1AD82AC83120C6B8D6C
:10116400828C83F0A309E970010ADFEC9000D8E0D7
:0A117400FBA3E0FAA3E0F902008BF0
:10002600E50824DEF582E43400F583E00508229035
:1000360000DB3007039000DEE475F001120D40028C
:100046000C6B2000E97F2ED2008018EF540F24900D
:10005600D43440D4FF30040BEF24BFB41A0050034D
:100066002461FFE50960021509050CE50C7002051F
:100076000B30070E9000DBE475F001120D40EF0225
:100086000C840213157403D2078003E4C207F50833
:100096009000DB120D57E4F509F50BF50CE5096048
:1000A600077F2012006980F5750AFFC201C200C2EF
:1000B60002C203C205C206C208120035FF700D3027
:1000C60007057F0012007AAF0CAE0B22B4255FC283
:1000D600D5C204120035FF24D0B40A00501A75F0B8
:1000E6000A780930D50508B6FF0106C6A426F6200B
:1000F600D5047002D20380D924CFB41A00EF50047D
:10010600C2E5D20402027BD20180C6D20080C0D2F0
:100116000280BCD2D580BAD20580B47F2012006995
:100126002002077401B5090040F1120026FF1200F3
:10013600690200A3D208D2068095120026FB12009F
:1001460026FA120026F94A4B7006794C7A037BFF91
:1001560020022EE509602A7E008E82758300120D2C
:100166001360060EEE650A70F0C2D5EBC0E0EAC079
:10017600E0E9C0E0EE1202C2D0E0F9D0E0FAD0E049
:10018600FB120C6BFF60AAEBC0E0EAC0E0E9C0E03E
:10019600120069D0E02401F9D0E03400FAD0E0FB87
:1001A600E50A0460DCD50AD980877BFF7A0279BE2E
:1001B600D202809C791080027908C206C2088008A3
:1001C600D2D5790A8004790AC2D5E50A047002F507
:1001D6000AE4FAFDFEFF120026FC7B08200113123A
:1001E6000026FD7B1030000A120026FE120026FFB4
:1001F6007B20EC3382D592D55013C3E43000069FA2
:10020600FFE49EFEE42001039DFDE49CFCE4CBF8A4
:10021600C201EC700CCFCECDCCE824F8F870F38098
:1002260017C3EF33FFEE33FEED33FDEC33FCEB3358
:10023600FB994002FB0FD8E9EB300105F8D0E0C48A
:1002460048B201C0E00AEC4D4E4F78207B0070C2E8
:10025600EAB50A0040BCC0E01202C4D0F0D0E020EB
:100266000104C4C0E0C4B201C0F0120052D0F0D5FF
:10027600F0EB0200A3120D6001405301BA580111C0
:100286004C010D4201BE4F01C64401C64901264339
:0802960001CC5501B04601B096
:10029E004501B047036C5001152D01192E013C2B61
:1002AE00011D23013A2003552A00D54800000134D0
:1002BE003F3F3F00790AA2D5200314300509B9103B
:1002CE00020404B9080104A2D5200602500104203C
:1002DE0002689202B509005034C0E07F2030031945
:1002EE007F30A20272067205500F12031BC202C2A9
:1002FE0006C205C2087F30800F300503E9C0E01248
:10030E000069300503D0E0F9D0E0B509CC3005170F
:10031E007F30B9100C1200697F583004077F788047
:10032E0003B908031200693002057F2D0200697FB0
:10033E00202008F87F2B2006F322920280CF286E11
:10034E00756C6C2900D2011200263001F8C20178BA
:10035E000930D50108F60200D52D50434958120038
:10036E00262403B405004001E49003679312005A5B
:0D037E00743A12005AD2037509040201BA44
:100D1300BB010CE58229F582E5833AF583E0225095
:100D230006E92582F8E622BBFE06E92582F8E222DF
:0D0D3300E58229F582E5833AF583E49322F9
:100D4000F8E0FBA3A3E0F925F0F0E582158270023C
:070D50001583E0FA38F022E0
:090D5700EBF0A3EAF0A3E9F0229D
:100D6000D083D082F8E4937012740193700DA3A322
:100D700093F8740193F5828883E473740293686036
:060D8000EFA3A3A380DF36
:10131500EFB40A07740D121320740A309811A899B6
:10132500B8130CC2983098FDA899C298B811F63038
:0713350099FDC299F5992210
:00000001FF
