:03000000021040AB
:0C104000787FE4F6D8FD758179021087F6
:10121F006F7574206F662072616E67653A25626420
:10122F002025640A004572617365200A0073617698
:10123F0065696E6720746F20666C617368203D3D31
:10124F003D0A00202C256420002562643A25753B59
:10125F0020002070726573732025642C25642C2563
:10126F00640A004F25642C4625642C532562640ABA
:01127F00006E
:1011B00002720000026E000002560000016B005433
:1011C000009656312E316270616E646170693364CD
:1011D0002E636F6D0A000169FF025BFFFF025F0073
:1011E0000002740000027000000267000002760036
:1011F000000278000002630000016A00015900014A
:10120000580002650000026103F7025D0000026CF5
:021210000000DC
:0A16420000007F027E0FDEFEDFFCD9
:01164C00227B
:1015EA007C007D0A120F50AA06AB07121642EB1BAB
:0815FA0070011A144A70F4227A
:0412DA00AD07AC06AA
:1012DE00E47851F618F67850E6FFC3940A748094B9
:1012EE0080501AAE04EDA807088005CEC313CE13A6
:1012FE00D8F930E00378510678500680D97851E657
:10130E0054016401700AEC440408F6ED08F6800BF3
:10131E00AE04AF057852A60608A6077852E6FE0878
:02132E00E6FFD8
:01133000229A
:04138400AD07AC06FF
:10138800E47851F618F67850E6FFC3940A7480940E
:1013980080501AAE04EDA807088005CEC313CE13FB
:1013A800D8F930E00378510678500680D9EC131349
:1013B800543FFF7851E65401B507050876018004CB
:0A13C800E47852F67852E6FF7E004A
:0113D20022F8
:080996009000AAEEF0A3EFF0BF
:10099E00E4782EF608F608F608F674FF782CF608BA
:1009AE00F6E47832F608F67832E6FE08E6FFC394EF
:1009BE004BEE94004003020A65EF25E0FFEE33FE96
:1009CE0074002FF58274003EF583E0FEA3E0FFF481
:1009DE007002EEF460769000AAE0FAA3E0FBD39FDB
:1009EE00EA9E4023E625E0FF18E633FE74002FF55D
:1009FE008274003EF583E0FEA3E0FFC3EB9F782FE9
:100A0E00F6EA9E18F680217833E625E0FF18E633E5
:100A1E00FE74002FF58274003EF583E0FEA3E0C362
:100A2E009B782FF6EE9A18F6782EE6FE08E6FFD3A0
:100A3E00782DE69F18E69E4013A60608A607783284
:100A4E00E6FE08E6FF7830A60608A607783306E627
:100A5E00187001060209B5ED64016003020BC97836
:100A6E0031E625E0FF18E633FE74002FF5827400A0
:100A7E003EF583E0FAA3E0FB9000AAE0FEA3E0FFC0
:100A8E00D39BEE9A4078EF9BFFEE9AFE7C007D0A98
:100A9E00120F50782CA60608A6077831E625E0FF3F
:100AAE0018E633FE74022FF58274003EF583E0FEE5
:100ABE00A3E0C39BFFEE9AFE120F50120F62782E28
:100ACE00EEF608EFF6D39400EE9400402E18E6FCF6
:100ADE0008E6FD782CE6FE08E6FF120F62AA06ABCA
:100AEE00077830E6FE08E6FF7C007D0A120F50EF15
:100AFE002B7831F6EE3A18F6020BC9020BB47830A9
:100B0E00E6FE08E6FFC39401EE94005003020BC903
:100B1E00EF25E0FFEE33FE74002FF58274003EF5F4
:100B2E0083E0FAA3E0FB9000AAE0FEA3E0FFC3EB94
:100B3E009FFFEA9EFE7C007D0A120F50782CA606BF
:100B4E0008A6077831E625E0FF18E633FE74FE2F7F
:100B5E00F58274FF3EF583E0FEA3E0FFC3EB9FFF3B
:100B6E00EA9EFE120F50120F62782EEEF608EFF686
:100B7E00D39400EE9400402E18E6FC08E6FD782C87
:100B8E00E6FE08E6FF120F62AA06AB077830E6FE15
:100B9E0008E6FF7C007D0A120F50C3EF9B7831F6FA
:100BAE00EE9A18F680157830E6FE08E6FF7C007D9A
:100BBE000A120F507830A60608A607D37831E694AD
:100BCE00FF18E69403400576030876FE7830E6FEBD
:030BDE0008E6FF27
:010BE10022F1
:030003000206BD35
:1006BD00C0E0C083C082C0D075D000C000C001C0F2
:1006CD0002C003C004C005C006C007787906E6184D
:1006DD007001067869E62402602324FEB40600400A
:1006ED000302097D9006F8F82828730207250207F2
:1006FD003F0207E602082B02095502097720B203D3
:10070D0002097D786976FF78787600087600785B47
:10071D0076FF0876FF02097720B20C20B3097869BD
:10072D00760178650207DE787906E6187001060213
:10073D00097D20B20302097D20B3030207D1786938
:10074D00760208E6F9FB7A00700478768008EB648F
:10075D00014A70137870E6FE08E6FF1212DA78632C
:10076D00A60608A6078068E9FFC3940274809480EA
:10077D00401AEF944D748094805011E925E024FCCB
:10078D00F582E434FFF583E0FEA38020E9FF7E00CF
:10079D00C3944D748094804036EF9461748094803E
:1007AD00502D744929F582E43400F583E0FF786318
:1007BD00EEF608EFF61212DA7863A60608A60778A9
:1007CD006A06800B78697603785F76000876007884
:1007DD0074760008760002097D30B20302097D7837
:1007ED0074E6FE08E6FFD3940AEE9400400B1876EB
:1007FD0000087600787802096CC3740A9FFF78634D
:10080D00E6FE08E6A807088005CEC313CE13D8F977
:10081D001392B3787506E61870010602097D20B2B1
:10082D000302097D30B3237875E6FFC3740A9FFF79
:10083D007E007401A807088005C333CE33CED8F9E6
:10084D00FFEE785F46F6EF0846F6787506E6187007
:10085D000106D37875E6940A18E694005003020950
:10086D007D760008760078697605C2A8D2AAD2B343
:10087D00785FE6FE08E6FF121384EF4E700302095F
:10088D007D785FE65403F6C3785BE6648094804020
:10089D001C785FE6FE08E6FF9484EE9403500E7814
:1008AD005BA60608A607786976FD02097D785FE6E6
:1008BD00FE08E6FFC3944BEE940050207870E6FCE2
:1008CD0008E6FDEF25E0FFEE33FE74002FF5827490
:1008DD00003EF583ECF0A3EDF002097D785FE6FEB6
:1008ED0008E6FFBE030ABFFC07786A760102097DA0
:1008FD00BE0309BFFB06785976018074BE0309BF9C
:10090D00F806786A764D8068BE0309BFFD067859F2
:10091D007602805CBE0309BFF906786A76028050C4
:10092D00BE0309BFFA06786A76008044BE0309BF8C
:10093D00FE06785976048038EFF47003EE64037088
:10094D002F785BF608F6802820B225787506E61814
:10095D00700106D37875E6940918E6940040117677
:10096D0000087600786976058006C2A8D2AAD2B3AF
:10097D00D007D006D005D004D003D002D001D000CE
:09098D00D0D0D082D083D0E0323A
:0300130002114097
:10114000C0E0C0D075D000C000C006C007C2A878FB
:1011500069E604600314701520B31230B20F786989
:10116000760078747600087600C2AAD2A830B3352B
:1011700030B2327869E6FF3395E0FEBEFF16BFFD60
:1011800013C2A8C2AAC2B37878760008760078693C
:1011900076FC8011786976FFC2A8D2AAD2B378789B
:1011A0007600087600D007D006D000D0D0D0E0324C
:071331007823E6FE08E6FF49
:04133800AB07AA064F
:10133C009000AA7411F0E4FDD294D295C294C29597
:10134C00EAC313139293D295C295EA139293D29552
:10135C00C295AE02EBA805088005C333CE33CED8B8
:10136C00F930E704D2938002C2930DD295EDC39469
:07137C00087480948040D941
:011383002247
:1010CC007869E6FF3395E0FEC364809480400A782B
:1010DC007906E6187009068006E47878F608F6BEFC
:1010EC00FF0DBFFF0A786606E6187009068006E455
:1010FC007865F608F6D37879E6948818E694134068
:10110C000E7869E6FF3395E0FEBEFF11BFFE0E7848
:10111C0059E6FF3395E0FEEF64044E7016E47859FF
:10112C00F67878F608F6786976FFC2A8D2AAD2B318
:04113C00120000227B
:10160200438E40E4F589758DCC758BCCD28ED2ABEE
:03161200D2AF2232
:100DA700E4782CF67869E6FF3395E0FEBEFF10BFC6
:100DB700FC0D76FE7F017E001215EAD2A8C2AA7842
:100DC70069E6FF3395E0FEEF64FE7002EEF4702CE7
:100DD700D37871E694F818E694024002C2B3785BC0
:100DE700E6FE08E6FF64014E6012D37877E69F18A7
:100DF700E69E5004D2B38004C2B3C2B3786D06E650
:100E070018700106D3786DE694F418E6940140391A
:100E17007861E6FE08E6FF7870EEF6FE08EFF6FF6B
:100E27007876A60608A607E4786CF608F67BFF7ABC
:100E370012791F7869E69000ADF0785BE6FF08E667
:100E4700A3CFF0A3EFF01212801210CC7859E6FF6F
:100E57003395E0FEEF64024E701876037BFF7A123B
:100E67007934121280E4FFFE12157C7F647E000243
:100E770015EA7859E6FF3395E0FEEF64034E706A92
:100E8700F67BFF7A12793C121280E4782CF6782CE4
:100E9700E6FFC3944B748094804003020F24EF75E0
:100EA700F002A4FFAEF02400F974003EFA7B019033
:100EB70000AFE4F0A37402F012145C7BFF7A12799E
:100EC70052782CE625E02400F582E43400F583E02F
:100ED700FFA3E09000ADCFF0A3EFF01212807F01E7
:100EE7007E001215EA782C0680A47859E6FF339520
:100EF700E0FEEF64014E7025F6782CF6782CE6FFBD
:100F0700C3944B748094805014EF25E02400F5823D
:0D0F1700E43400F58374FFF0A3F00680DFE2
:010F240022AA
:10038B00E47822F608F608F608F608F6782BF6124B
:10039B00159C74FF785BF608F6D2AFC288C2A8C270
:1003AB008A121602D2AAC290C2917F647E001215E5
:1003BB00EAE47822F67822E6FF3395E0FEC3EF9469
:1003CB004BEE64809480505CEF25E0FFEE33FEC073
:1003DB0006C00774002FF974003EFA7B019000AF42
:1003EB00E4F0A37402F0D007D00612141D7BFF7A41
:1003FB001279587822E6FF9000ADF03395E0FEEFCE
:10040B0025E0FFEE33FE74002FF58274003EF5837A
:10041B00E0FFA3E09000AECFF0A3EFF012128078D4
:10042B0022068091D291D2907B017A00799612129A
:10043B0080785DE6FE08E6FF7823A60608A607E4AB
:10044B007870F608F67876F608F6782B7601120DAA
:10045B00A720B7030204E7120DA7121331782BE67E
:10046B00FF3395E0FE7824EF26F618EE36F6785D2E
:10047B00E6FE08E6FF7823E6FC08E6FDD39FEC9E3C
:10048B005006782B760180127861E6FE08E6FFC3F2
:10049B00ED9FEC9E400B782B76FF7823A60608A6E3
:1004AB0007E47822F67822E6FF3395E0FEC3EF945B
:1004BB000AEE64809480500912164230B70306800E
:1004CB00E420B78DE4786CF608F67823E6FE08E6B0
:1004DB00FF7870A60608A607782B760130B70302C3
:1004EB000459120DA7121331782BE6FF3395E0FE5A
:1004FB007824EF26F618EE36F6785DE6FE08E6FF72
:10050B007823E6FC08E6FDD39FEC9E5006782B760D
:10051B000180127861E6FE08E6FFC3ED9FEC9E407A
:10052B000B782B76FF7823A60608A607E47822F62D
:10053B007822E6FF3395E0FEC3EF940AEE648094D5
:10054B0080500912164220B7030680E430B78DE4C1
:10055B00786CF608F67823E6FE08E6FF08A6060890
:10056B00A6077869E6FF3395E0FEEF64FE7002EEB6
:10057B00F46003020646785CE664011846600302E9
:10058B0006467870E6FE08E6FF787326F618EE3618
:10059B00F6786F06E618700106C3786FE6940118BB
:1005AB00E694005003020646E4F608F67856E6FC9D
:1005BB0008E6FD7872E6FA08E6FBD39DEA9C400854
:1005CB00EB9DFDEA9CFC800F7856E6FC08E6C378B1
:1005DB007396FDEC1896FCC3ED9404EC9400503B21
:1005EB00C3EF94F8EE94025032D2B37BFF7A1279B8
:1005FB00617870E6FF08E69000ADCFF0A3EFF0084E
:10060B00E6FF08E6A3CFF0A3EFF07856E6FF08E687
:10061B00A3CFF0A3EFF01212808002C2B37872E680
:10062B00FE08E6FF7857667003EE1866600778568B
:10063B00A60608A607E47872F608F67827E6FE0801
:10064B00E67871667003EE186670107829E6FE087E
:10065B00E67826667003EE186660507870E6FE0842
:10066B00E6FF7827A60608A6077825E6FC08E6FD30
:10067B007829A60408A6057D011209967876A606A8
:10068B0008A6077BFF7A1279727870E6FF08E6906E
:10069B0000ADCFF0A3EFF07825E6FF08E6A3CFF08F
:1006AB00A3EFF07869E6A3F0121280782B76FF02A5
:0206BB000459E0
:0C121200011000010F00010D00010E0092
:10159C00759850438E01438E0475D7BF75D6FF43A3
:0B15AC008E10D2ACD29CC29FD29E22B7
:0B1636003098FDC298781DA699E6FFD1
:011641002286
:08164D008F993099FDC299222A
:10161500120F25FF600C12164D740129F9E43AFAF0
:0316250080EE2232
:03002300020BE2EB
:100BE200C0E0C0F0C083C082C0D075D000C000C0D9
:100BF20001C002C003C004C005C006C0072098039C
:100C0200020D87C298900103E0FBA3E0FAA3E0F98A
:100C1200E599120F3E900103E0FBA3E0FAA3E0F98D
:0A0C2200120F25643B6003020D5E13
:100C2C007855F67811E6062413F8760078127602D9
:100C3C00785476007854E6FFC37811964003020D81
:100C4C005574132FF8E6FE6452600DEE6441600893
:100C5C00EE644C6003020D4F74142FF8E6FEB4568C
:100C6C0007780F7602020D5574152FF8E6FFFD3349
:100C7C0095E0FCC3ED9430EC648094804025EEFD4F
:100C8C003395E0FCC3ED9430EC6480948040147890
:100C9C0054E62414F8E624D075F00AA4FEEF24D010
:100CAC002E801B7854E62414F8E6FFFD3395E0FC07
:100CBC00C3ED9430EC648094804013EF24D0FF900B
:100CCC000103E0FBA3E0FAA3E0F9EF120F3E900161
:100CDC0003E0FBA3E0FAA3E0F9120F25D3946474AC
:100CEC008094805064C374809480405D7854E62472
:100CFC0013F8E6FFB45216780F7601120F25FED3C7
:100D0C00940074809480404108A606803CEFB44166
:100D1C000C780F7601120F25780DF6802C7854E69E
:100D2C002413F8E6B44C22780F7601120F25FF7EBF
:100D3C000064017005187601800FEF4E700B780E71
:100D4C00F68006785406020C40781276001876006D
:100D5C008029900103E0FBA3E0FAA3E0F9120F2530
:100D6C00FF7811E6062413F8A6077812760118E628
:100D7C00D3940A7480948040027600309902C29910
:100D8C00D007D006D005D004D003D002D001D000BB
:0B0D9C00D0D0D082D083D0F0D0E03265
:0B1280009000AAEBF0A3EAF0A3E9F055
:10128B00782D76010876000876AD9000AAE0F9A3D8
:10129B00E0FAA3E09000D5C9F0A3EAF0A3E9F07857
:1012AB002D860308E6FA08E6F9A3EBF0A3EAF0A310
:1012BB00E9F07B007A0079301213D37B007A007946
:0E12CB0030121615782DA6030876000876005E
:0112D90022F2
:02165C0000226A
:07165500D29300D2940022A1
:0D000600D29400D29312165CC29302165CD5
:0D001600C29300D29412165CD29302165CC5
:1015D100C29400300904C2938002D29300D29412C3
:0915E100165CC29400D2930022B2
:0815B7001200067FEA1215067E
:1015BF00D29412165C309305C29400C322C29400D9
:0215CF00D32225
:10150600E4FEEEC39408748094805019C29400EFF0
:1015160030E705D293008003C29300D29400EF25F2
:0B152600E0FF0E80DDC29400D29300B5
:011531002297
:10149B00C29400D29300E4FEEEFD7C00C39408746A
:1014AB008094805025D29400EF3093054401FF8047
:1014BB000354FEFF00C29400C3ED9407EC648094C8
:0A14CB00805004EF25E0FF0E80CEF4
:0114D50022F4
:10155900AB071215B7400122AF031215061215BFCA
:10156900400122AF051215061215BF4001221200D3
:0315790016D32264
:0214D600AD0760
:1014D8001215B740037F0022AF05121506C2091284
:1014E80015D11200067FEB1215061215BF40037FB7
:0D14F800002212149BC2091215D112001619
:0115050022C3
:0E162800E4F5C7F5C5F5C675C3FF75C4FF220E
:10141D00AD07AC06C2AF75C78375C501ECF5C3AF9B
:10142D00058FC475C65A75C6A500E5C2120F3E0DCF
:10143D00BD00010C740129F9E43AFA9000AF74FF74
:0F144D00F5F0120FB745F070D0121628D2AF226B
:10157C00AD07AC06C2AFECF5C3AF058FC475C7831E
:10158C0075C50375C65A75C6A500121628D2AF22AA
:10145C00AD07AC06C2AF75C78375C502ECF5C3AF5B
:10146C00058FC4120F25F5C275C65A75C6A5000D99
:10147C00BD00010C740129F9E43AFA9000AF74FF35
:0F148C00F5F0120FB745F070D0121628D2AF222C
:10104C0002038BE493A3F8E493A34003F68001F22C
:10105C0008DFF48029E493A3F85407240CC8C333A5
:10106C00C4540F4420C8834004F456800146F6DF74
:10107C00E4800B01020408102040809011B0E47E43
:10108C00019360BCA3FF543F30E509541FFEE49369
:10109C00A360010ECF54C025E060A840B8E493A330
:1010AC00FAE493A3F8E493A3C8C582C8CAC583CA5B
:1010BC00F0A3C8C582C8CAC583CADFE9DEE780BE13
:01121E0000CF
:100F2500BB010689828A83E0225002E722BBFE02CA
:090F3500E32289828A83E49322FD
:100F3E00BB010689828A83F0225002F722BBFE0192
:020F4E00F3228C
:100F5000EF8DF0A4A8F0CF8CF0A428CE8DF0A42EB5
:020F6000FE226F
:100F6200BC000BBE0029EF8DF084FFADF022E4CC73
:100F7200F875F008EF2FFFEE33FEEC33FCEE9DEC3C
:100F8200984005FCEE9DFE0FD5F0E9E4CEFD22ED82
:100F9200F8F5F0EE8420D21CFEADF075F008EF2FCC
:100FA200FFED33FD4007985006D5F0F222C398FDBD
:050FB2000FD5F0EA225A
:100FB700C5F0F8A3E028F0C5F0F8E58215827002C5
:060FC7001583E038F02262
:1013D3009000D5E0FFA3E0FEA3E0CF9000DEF0A3F2
:1013E300EEF0A3EFF09000D8E0CBF0A3E0CAF0A3B7
:1013F300E0C9F07F229000E1AD82AC83120F258D0E
:10140300828C83F0A309E970010ADFEC9000D8E035
:0A141300FBA3E0FAA3E0F902008B4E
:10002600E50824DEF582E43400F583E00508229035
:1000360000DB3007039000DEE475F001120FFA02D0
:100046000F252000E97F2ED2008018EF540F249050
:10005600D43440D4FF30040BEF24BFB41A0050034D
:100066002461FFE50960021509050CE50C7002051F
:100076000B30070E9000DBE475F001120FFAEF0269
:100086000F3E0215327403D2078003E4C207F50857
:100096009000DB121011E4F509F50BF50CE509608B
:1000A600077F2012006980F5750AFFC201C200C2EF
:1000B60002C203C205C206C208120035FF700D3027
:1000C60007057F0012007AAF0CAE0B22B4255FC283
:1000D600D5C204120035FF24D0B40A00501A75F0B8
:1000E6000A780930D50508B6FF0106C6A426F6200B
:1000F600D5047002D20380D924CFB41A00EF50047D
:10010600C2E5D20402027BD20180C6D20080C0D2F0
:100116000280BCD2D580BAD20580B47F2012006995
:100126002002077401B5090040F1120026FF1200F3
:10013600690200A3D208D2068095120026FB12009F
:1001460026FA120026F94A4B7006794C7A037BFF91
:1001560020022EE509602A7E008E82758300120F2A
:10016600CD60060EEE650A70F0C2D5EBC0E0EAC0BF
:10017600E0E9C0E0EE1202C2D0E0F9D0E0FAD0E049
:10018600FB120F25FF60AAEBC0E0EAC0E0E9C0E081
:10019600120069D0E02401F9D0E03400FAD0E0FB87
:1001A600E50A0460DCD50AD980877BFF7A0279BE2E
:1001B600D202809C791080027908C206C2088008A3
:1001C600D2D5790A8004790AC2D5E50A047002F507
:1001D6000AE4FAFDFEFF120026FC7B08200113123A
:1001E6000026FD7B1030000A120026FE120026FFB4
:1001F6007B20EC3382D592D55013C3E43000069FA2
:10020600FFE49EFEE42001039DFDE49CFCE4CBF8A4
:10021600C201EC700CCFCECDCCE824F8F870F38098
:1002260017C3EF33FFEE33FEED33FDEC33FCEB3358
:10023600FB994002FB0FD8E9EB300105F8D0E0C48A
:1002460048B201C0E00AEC4D4E4F78207B0070C2E8
:10025600EAB50A0040BCC0E01202C4D0F0D0E020EB
:100266000104C4C0E0C4B201C0F0120052D0F0D5FF
:10027600F0EB0200A312101A01405301BA58011103
:100286004C010D4201BE4F01C64401C64901264339
:0802960001CC5501B04601B096
:10029E004501B047036C5001152D01192E013C2B61
:1002AE00011D23013A2003552A00D54800000134D0
:1002BE003F3F3F00790AA2D5200314300509B9103B
:1002CE00020404B9080104A2D5200602500104203C
:1002DE0002689202B509005034C0E07F2030031945
:1002EE007F30A20272067205500F12031BC202C2A9
:1002FE0006C205C2087F30800F300503E9C0E01248
:10030E000069300503D0E0F9D0E0B509CC3005170F
:10031E007F30B9100C1200697F583004077F788047
:10032E0003B908031200693002057F2D0200697FB0
:10033E00202008F87F2B2006F322920280CF286E11
:10034E00756C6C2900D2011200263001F8C20178BA
:10035E000930D50108F60200D52D50434958120038
:10036E00262403B405004001E49003679312005A5B
:0D037E00743A12005AD2037509040201BA44
:100FCD00BB010CE58229F582E5833AF583E02250D9
:100FDD0006E92582F8E622BBFE06E92582F8E22223
:0D0FED00E58229F582E5833AF583E493223D
:100FFA00F8E0FBA3A3E0F925F0F0E5821582700280
:07100A001583E0FA38F02223
:09101100EBF0A3EAF0A3E9F022E0
:10101A00D083D082F8E4937012740193700DA3A365
:10102A0093F8740193F5828883E473740293686079
:06103A00EFA3A3A380DF79
:10153200EFB40A07740D12153D740A309811A89978
:10154200B8130CC2983098FDA899C298B811F63019
:0715520099FDC299F59922F1
:00000001FF
