:0300000002100BE0
:0C100B00787FE4F6D8FD75817902105260
:1011EA006F7574206F662072616E67653A25626456
:1011FA002025640A004572617365200A00736176CE
:10120A0065696E6720746F20666C617368203D3D66
:10121A003D0A00202C256420002562643A25753B8E
:10122A0020002070726573732025642C25642C2598
:10123A00640A004F25642C4625642C532562640AEF
:01124A0000A3
:10117B0002720000026E000002560000016B005468
:10118B00009656312E316270616E64617069336402
:10119B002E636F6D0A000169FF025BFFFF025F00A8
:1011AB00000274000002700000026700000276006B
:1011BB00000278000002630000016A00015900017F
:1011CB00580002650000026103F7025D0000026C2B
:0211DB00000012
:0A160D0000007F027E0FDEFEDFFC0E
:0116170022B0
:1015B5007C007D0A120F1BAA06AB0712160DEB1B4A
:0815C50070011A144A70F422AF
:0412A500AD07AC06DF
:1012A900E47851F618F67850E6FFC3940A748094EE
:1012B90080501AAE04EDA807088005CEC313CE13DB
:1012C900D8F930E00378510678500680D97851E68C
:1012D90054016401700AEC440408F6ED08F6800B29
:1012E900AE04AF057852A60608A6077852E6FE08AE
:0212F900E6FF0E
:0112FB0022D0
:04134F00AD07AC0634
:10135300E47851F618F67850E6FFC3940A74809443
:1013630080501AAE04EDA807088005CEC313CE1330
:10137300D8F930E00378510678500680D9EC13137E
:10138300543FFF7851E65401B50705087601800400
:0A139300E47852F67852E6FF7E007F
:01139D00222D
:080967009000AAEEF0A3EFF0EE
:10096F00E4782EF608F608F608F674FF782CF608E9
:10097F00F6E47832F608F67832E6FE08E6FFC3941E
:10098F004BEE94004003020A36EF25E0FFEE33FEF4
:10099F0074002FF58274003EF583E0FEA3E0FFF4B0
:1009AF007002EEF460769000AAE0FAA3E0FBD39F0A
:1009BF00EA9E4023E625E0FF18E633FE74002FF58C
:1009CF008274003EF583E0FEA3E0FFC3EB9F782F18
:1009DF00F6EA9E18F680217833E625E0FF18E63315
:1009EF00FE74002FF58274003EF583E0FEA3E0C392
:1009FF009B782FF6EE9A18F6782EE6FE08E6FFD3D0
:100A0F00782DE69F18E69E4013A60608A6077832B3
:100A1F00E6FE08E6FF7830A60608A607783306E656
:100A2F0018700106020986ED64016003020B9A78C3
:100A3F0031E625E0FF18E633FE74002FF5827400CF
:100A4F003EF583E0FAA3E0FB9000AAE0FEA3E0FFEF
:100A5F00D39BEE9A4078EF9BFFEE9AFE7C007D0AC7
:100A6F00120F1B782CA60608A6077831E625E0FFA3
:100A7F0018E633FE74022FF58274003EF583E0FE14
:100A8F00A3E0C39BFFEE9AFE120F1B120F2D782EC1
:100A9F00EEF608EFF6D39400EE9400402E18E6FC25
:100AAF0008E6FD782CE6FE08E6FF120F2DAA06AB2E
:100ABF00077830E6FE08E6FF7C007D0A120F1BEF79
:100ACF002B7831F6EE3A18F6020B9A020B85783036
:100ADF00E6FE08E6FFC39401EE94005003020B9A62
:100AEF00EF25E0FFEE33FE74002FF58274003EF524
:100AFF0083E0FAA3E0FB9000AAE0FEA3E0FFC3EBC4
:100B0F009FFFEA9EFE7C007D0A120F1B782CA60623
:100B1F0008A6077831E625E0FF18E633FE74FE2FAE
:100B2F00F58274FF3EF583E0FEA3E0FFC3EB9FFF6A
:100B3F00EA9EFE120F1B120F2D782EEEF608EFF61F
:100B4F00D39400EE9400402E18E6FC08E6FD782CB6
:100B5F00E6FE08E6FF120F2DAA06AB077830E6FE79
:100B6F0008E6FF7C007D0A120F1BC3EF9B7831F65E
:100B7F00EE9A18F680157830E6FE08E6FF7C007DC9
:100B8F000A120F1B7830A60608A607D37831E69411
:100B9F00FF18E69403400576030876FE7830E6FEEC
:030BAF0008E6FF56
:010BB2002220
:030003000206BD35
:1006BD00C0E0C083C082C0D075D000C000C001C0F2
:1006CD0002C003C004C005C006C007787906E6184D
:1006DD007001067869E61460391470030207C614B8
:1006ED00700302080B14700302092614700302092B
:1006FD00482405600302094E20B20C20B309786925
:10070D00760178650207BE787906E6187001060253
:10071D00094E20B20302094E20B3030207B17869D6
:10072D00760208E6F9FB7A00700478768008EB64AF
:10073D00014A70137870E6FE08E6FF1212A5786381
:10074D00A60608A6078068E9FFC39402748094800A
:10075D00401AEF944D748094805011E925E024FCEB
:10076D00F582E434FFF583E0FEA38020E9FF7E00EF
:10077D00C3944D748094804036EF9461748094805E
:10078D00502D744929F582E43400F583E0FF786338
:10079D00EEF608EFF61212A57863A60608A60778FE
:1007AD006A06800B78697603785F760008760078A4
:1007BD0074760008760002094E30B20302094E78B5
:1007CD0074E6FE08E6FFD3940AEE9400400B18760B
:1007DD0000087600787802093DC3740A9FFF78639C
:1007ED00E6FE08E6A807088005CEC313CE13D8F998
:1007FD001392B3787506E61870010602094E20B201
:10080D000302094E30B3237875E6FFC3740A9FFFC8
:10081D007E007401A807088005C333CE33CED8F906
:10082D00FFEE785F46F6EF0846F6787506E6187027
:10083D000106D37875E6940A18E694005003020970
:10084D004E760008760078697605C2A8D2AAD2B392
:10085D00785FE6FE08E6FF12134FEF4E70030209B4
:10086D004E785FE65403F6E6FE08E6FFC3944BEEC2
:10087D0094005039C3785BE664809480400CA606E2
:10088D0008A607786976FD02094E7870E6FC08E641
:10089D00FD7860E625E0FF18E633FE74002FF58243
:1008AD0074003EF583ECF0A3EDF002094E785FE69F
:1008BD00FE08E6FFBE030ABFFC07786A760102094F
:1008CD004EBE0309BFFB06785976018074BE03093D
:1008DD00BFF806786A764D8068BE0309BFFD0678BD
:1008ED00597602805CBE0309BFF906786A760280EC
:1008FD0050BE0309BFFA06786A76008044BE03092C
:10090D00BFFE06785976048038EFF47003EE640369
:10091D00702F785BF608F6802820B225787506E6EC
:10092D0018700106D37875E6940918E69400401105
:10093D007600087600786976058006C2A8D2AAD21C
:10094D00B3D007D006D005D004D003D002D001D04B
:0A095D0000D0D0D082D083D0E03269
:0300130002110BCC
:10110B00C0E0C0D075D000C000C006C007C2A87830
:10111B0069E604600314701520B31230B20F7869BE
:10112B00760078747600087600C2AAD2A830B33560
:10113B0030B2327869E6FF3395E0FEBEFF16BFFD95
:10114B0013C2A8C2AAD2B378787600087600786961
:10115B0076FE8011786976FFC2A8D2AAD2B37878CE
:10116B007600087600D007D006D000D0D0D0E03281
:0712FC007823E6FE08E6FF7F
:04130300AB07AA0684
:101307009000AA7411F0E4FDD294D295C294C295CC
:10131700EAC313139293D295C295EA139293D29587
:10132700C295AE02EBA805088005C333CE33CED8ED
:10133700F930E704D2938002C2930DD295EDC3949E
:07134700087480948040D976
:01134E00227C
:101097007869E6FF3395E0FEC364809480400A7860
:1010A7007906E6187009068006E47878F608F6BE31
:1010B700FF0DBFFF0A786606E6187009068006E48A
:1010C7007865F608F6D37879E6948818E69413409D
:1010D7000E7869E6FF3395E0FEBEFF11BFFE0E787E
:1010E70059E6FF3395E0FEEF64044E7016E4785935
:1010F700F67878F608F6786976FFC2A8D2AAD2B34E
:0411070012000022B0
:1015CD00438E40E4F589758DCC758BCCD28ED2AB24
:0315DD00D2AF2268
:100D7800E4782CF67869E6FF3395E0FEEF64FE70C0
:100D880002EEF4704130B21476FF7878F608F67403
:100D9800FF785BF608F6C2A8D2AAD2B3D37871E678
:100DA80094EE18E694024002C2B3785BE6FE08E6C9
:100DB800FF64014E6010D37877E69F18E69E5004D2
:100DC800D2B38002C2B3786D06E618700106D378F4
:100DD8006DE694F418E6940140397861E6FE08E679
:100DE800FF7870EEF6FE08EFF6FF7876A60608A6FE
:100DF80007E4786CF608F67BFF7A1179EA7869E6F9
:100E08009000ADF0785BE6FF08E6A3CFF0A3EFF023
:100E180012124B1210977859E6FF3395E0FEEF64F3
:100E2800024E701876037BFF7A1179FF12124BE499
:100E3800FFFE1215477F647E000215B57859E6FF5C
:100E48003395E0FEEF64034E706AF67BFF7A127901
:100E58000712124BE4782CF6782CE6FFC3944B74F7
:100E68008094804003020EEFEF75F002A4FFAEF00D
:100E78002400F974003EFA7B019000AFE4F0A374FB
:100E880002F01214277BFF7A12791D782CE625E0F0
:100E98002400F582E43400F583E0FFA3E09000AD80
:100EA800CFF0A3EFF012124B7F017E001215B57838
:100EB8002C0680A47859E6FF3395E0FEEF64014ED6
:100EC8007025F6782CF6782CE6FFC3944B74809442
:100ED800805014EF25E02400F582E43400F5837493
:070EE800FFF0A3F00680DF1C
:010EEF0022E0
:10038B00E47822F608F608F608F608F6782BF6124B
:10039B00156774FF785BF608F6D2AFC288C2A8C2A5
:1003AB008A1215CDD2AAC290C2917F647E0012151B
:1003BB00B5E47822F67822E6FF3395E0FEC3EF949E
:1003CB004BEE64809480505CEF25E0FFEE33FEC073
:1003DB0006C00774002FF974003EFA7B019000AF42
:1003EB00E4F0A37402F0D007D0061213E87BFF7A77
:1003FB001279237822E6FF9000ADF03395E0FEEF03
:10040B0025E0FFEE33FE74002FF58274003EF5837A
:10041B00E0FFA3E09000AECFF0A3EFF012124B7809
:10042B0022068091D291D2907B017A00799612129A
:10043B004B785DE6FE08E6FF7823A60608A607E4E0
:10044B007870F608F67876F608F6782B7601120DAA
:10045B007820B7030204E7120D781212FC782BE612
:10046B00FF3395E0FE7824EF26F618EE36F6785D2E
:10047B00E6FE08E6FF7823E6FC08E6FDD39FEC9E3C
:10048B005006782B760180127861E6FE08E6FFC3F2
:10049B00ED9FEC9E400B782B76FF7823A60608A6E3
:1004AB0007E47822F67822E6FF3395E0FEC3EF945B
:1004BB000AEE64809480500912160D30B703068043
:1004CB00E420B78DE4786CF608F67823E6FE08E6B0
:1004DB00FF7870A60608A607782B760130B70302C3
:1004EB000459120D781212FC782BE6FF3395E0FEBF
:1004FB007824EF26F618EE36F6785DE6FE08E6FF72
:10050B007823E6FC08E6FDD39FEC9E5006782B760D
:10051B000180127861E6FE08E6FFC3ED9FEC9E407A
:10052B000B782B76FF7823A60608A607E47822F62D
:10053B007822E6FF3395E0FEC3EF940AEE648094D5
:10054B0080500912160D20B7030680E430B78DE4F6
:10055B00786CF608F67823E6FE08E6FF08A6060890
:10056B00A6077869E6FF3395E0FEEF64FE7002EEB6
:10057B00F46003020646785CE664011846600302E9
:10058B0006467870E6FE08E6FF787326F618EE3618
:10059B00F6786F06E618700106C3786FE6940218BA
:1005AB00E694005003020646E4F608F67856E6FC9D
:1005BB0008E6FD7872E6FA08E6FBD39DEA9C400854
:1005CB00EB9DFDEA9CFC800F7856E6FC08E6C378B1
:1005DB007396FDEC1896FCC3ED9408EC9400503B1D
:1005EB00C3EF94EEEE94025032D2B37BFF7A1279C2
:1005FB002C7870E6FF08E69000ADCFF0A3EFF00883
:10060B00E6FF08E6A3CFF0A3EFF07856E6FF08E687
:10061B00A3CFF0A3EFF012124B8002C2B37872E6B5
:10062B00FE08E6FF7857667003EE1866600778568B
:10063B00A60608A607E47872F608F67827E6FE0801
:10064B00E67871667003EE186670107829E6FE087E
:10065B00E67826667003EE186660507870E6FE0842
:10066B00E6FF7827A60608A6077825E6FC08E6FD30
:10067B007829A60408A6057D011209677876A606D7
:10068B0008A6077BFF7A12793D7870E6FF08E690A3
:10069B0000ADCFF0A3EFF07825E6FF08E6A3CFF08F
:1006AB00A3EFF07869E6A3F012124B782B76FF02DA
:0206BB000459E0
:0C11DD00011000010F00010D00010E00C8
:10156700759850438E01438E0475D7BF75D6FF43D8
:0B1577008E10D2ACD29CC29FD29E22EC
:0B1601003098FDC298781DA699E6FF06
:01160C0022BB
:081618008F993099FDC299225F
:1015E000120EF0FF600C121618740129F9E43AFA91
:0315F00080EE2268
:03002300020BB31A
:100BB300C0E0C0F0C083C082C0D075D000C000C008
:100BC30001C002C003C004C005C006C007209803CB
:100BD300020D58C298900103E0FBA3E0FAA3E0F9E9
:100BE300E599120F09900103E0FBA3E0FAA3E0F9F2
:0A0BF300120EF0643B6003020D2FA8
:100BFD007855F67811E6062413F876007812760209
:100C0D00785476007854E6FFC37811964003020DB0
:100C1D002674132FF8E6FE6452600DEE64416008F1
:100C2D00EE644C6003020D2074142FF8E6FEB456EA
:100C3D0007780F7602020D2674152FF8E6FFFD33A7
:100C4D0095E0FCC3ED9430EC648094804025EEFD7E
:100C5D003395E0FCC3ED9430EC64809480401478BF
:100C6D0054E62414F8E624D075F00AA4FEEF24D03F
:100C7D002E801B7854E62414F8E6FFFD3395E0FC36
:100C8D00C3ED9430EC648094804013EF24D0FF903A
:100C9D000103E0FBA3E0FAA3E0F9EF120F099001C5
:100CAD0003E0FBA3E0FAA3E0F9120EF0D394647411
:100CBD008094805064C374809480405D7854E624A1
:100CCD0013F8E6FFB45216780F7601120EF0FED32C
:100CDD00940074809480404108A606803CEFB44196
:100CED000C780F7601120EF0780DF6802C7854E604
:100CFD002413F8E6B44C22780F7601120EF0FF7E25
:100D0D000064017005187601800FEF4E700B780EA0
:100D1D00F68006785406020C1178127600187600CB
:100D2D008029900103E0FBA3E0FAA3E0F9120EF095
:100D3D00FF7811E6062413F8A6077812760118E657
:100D4D00D3940A7480948040027600309902C2993F
:100D5D00D007D006D005D004D003D002D001D000EA
:0B0D6D00D0D0D082D083D0F0D0E03294
:0B124B009000AAEBF0A3EAF0A3E9F08A
:10125600782D76010876000876AD9000AAE0F9A30D
:10126600E0FAA3E09000D5C9F0A3EAF0A3E9F0788C
:101276002D860308E6FA08E6F9A3EBF0A3EAF0A345
:10128600E9F07B007A00793012139E7B007A0079B0
:0E129600301215E0782DA603087600087600C9
:0112A4002227
:0216270000229F
:07162000D29300D2940022D6
:0D000600D29400D293121627C2930216273F
:0D001600C29300D294121627D2930216272F
:10159C00C29400300904C2938002D29300D29412F8
:0915AC001627C29400D29300221C
:081582001200067FEA1214D1E9
:10158A00D294121627309305C29400C322C2940043
:02159A00D3225A
:1014D100E4FEEEC39408748094805019C29400EF26
:1014E10030E705D293008003C29300D29400EF2528
:0B14F100E0FF0E80DDC29400D29300EB
:0114FC0022CD
:10146600C29400D29300E4FEEEFD7C00C39408749F
:101476008094805025D29400EF3093054401FF807C
:101486000354FEFF00C29400C3ED9407EC648094FD
:0A149600805004EF25E0FF0E80CE29
:0114A0002229
:10152400AB07121582400122AF031214D112158A9F
:10153400400122AF051214D112158A400122120073
:0315440016D32299
:0214A100AD0795
:1014A30012158240037F0022AF051214D1C2091224
:1014B300159C1200067FEB1214D112158A40037F8C
:0D14C3000022121466C20912159C120016B8
:0114D00022F9
:0E15F300E4F5C7F5C5F5C675C3FF75C4FF2244
:1013E800AD07AC06C2AF75C78375C501ECF5C3AFD1
:1013F800058FC475C65A75C6A500E5C2120F090D3A
:10140800BD00010C740129F9E43AFA9000AF74FFA9
:0F141800F5F0120F8245F070D01215F3D2AF220B
:10154700AD07AC06C2AFECF5C3AF058FC475C78353
:1015570075C50375C65A75C6A5001215F3D2AF2215
:10142700AD07AC06C2AF75C78375C502ECF5C3AF90
:10143700058FC4120EF0F5C275C65A75C6A5000D04
:10144700BD00010C740129F9E43AFA9000AF74FF6A
:0F145700F5F0120F8245F070D01215F3D2AF22CC
:1010170002038BE493A3F8E493A34003F68001F261
:1010270008DFF48029E493A3F85407240CC8C333DA
:10103700C4540F4420C8834004F456800146F6DFA9
:10104700E4800B010204081020408090117BE47EAD
:10105700019360BCA3FF543F30E509541FFEE4939E
:10106700A360010ECF54C025E060A840B8E493A365
:10107700FAE493A3F8E493A3C8C582C8CAC583CA90
:10108700F0A3C8C582C8CAC583CADFE9DEE780BE48
:0111E9000005
:100EF000BB010689828A83E0225002E722BBFE0200
:090F0000E32289828A83E4932232
:100F0900BB010689828A83F0225002F722BBFE01C7
:020F1900F322C1
:100F1B00EF8DF0A4A8F0CF8CF0A428CE8DF0A42EEA
:020F2B00FE22A4
:100F2D00BC000BBE0029EF8DF084FFADF022E4CCA8
:100F3D00F875F008EF2FFFEE33FEEC33FCEE9DEC71
:100F4D00984005FCEE9DFE0FD5F0E9E4CEFD22EDB7
:100F5D00F8F5F0EE8420D21CFEADF075F008EF2F01
:100F6D00FFED33FD4007985006D5F0F222C398FDF2
:050F7D000FD5F0EA228F
:100F8200C5F0F8A3E028F0C5F0F8E58215827002FA
:060F92001583E038F02297
:10139E009000D5E0FFA3E0FEA3E0CF9000DEF0A327
:1013AE00EEF0A3EFF09000D8E0CBF0A3E0CAF0A3EC
:1013BE00E0C9F07F229000E1AD82AC83120EF08D79
:1013CE00828C83F0A309E970010ADFEC9000D8E06B
:0A13DE00FBA3E0FAA3E0F902008B84
:10002600E50824DEF582E43400F583E00508229035
:1000360000DB3007039000DEE475F001120FC50205
:100046000EF02000E97F2ED2008018EF540F249086
:10005600D43440D4FF30040BEF24BFB41A0050034D
:100066002461FFE50960021509050CE50C7002051F
:100076000B30070E9000DBE475F001120FC5EF029E
:100086000F090214FD7403D2078003E4C207F508C2
:100096009000DB120FDCE4F509F50BF50CE50960C1
:1000A600077F2012006980F5750AFFC201C200C2EF
:1000B60002C203C205C206C208120035FF700D3027
:1000C60007057F0012007AAF0CAE0B22B4255FC283
:1000D600D5C204120035FF24D0B40A00501A75F0B8
:1000E6000A780930D50508B6FF0106C6A426F6200B
:1000F600D5047002D20380D924CFB41A00EF50047D
:10010600C2E5D20402027BD20180C6D20080C0D2F0
:100116000280BCD2D580BAD20580B47F2012006995
:100126002002077401B5090040F1120026FF1200F3
:10013600690200A3D208D2068095120026FB12009F
:1001460026FA120026F94A4B7006794C7A037BFF91
:1001560020022EE509602A7E008E82758300120F2A
:100166009860060EEE650A70F0C2D5EBC0E0EAC0F4
:10017600E0E9C0E0EE1202C2D0E0F9D0E0FAD0E049
:10018600FB120EF0FF60AAEBC0E0EAC0E0E9C0E0B7
:10019600120069D0E02401F9D0E03400FAD0E0FB87
:1001A600E50A0460DCD50AD980877BFF7A0279BE2E
:1001B600D202809C791080027908C206C2088008A3
:1001C600D2D5790A8004790AC2D5E50A047002F507
:1001D6000AE4FAFDFEFF120026FC7B08200113123A
:1001E6000026FD7B1030000A120026FE120026FFB4
:1001F6007B20EC3382D592D55013C3E43000069FA2
:10020600FFE49EFEE42001039DFDE49CFCE4CBF8A4
:10021600C201EC700CCFCECDCCE824F8F870F38098
:1002260017C3EF33FFEE33FEED33FDEC33FCEB3358
:10023600FB994002FB0FD8E9EB300105F8D0E0C48A
:1002460048B201C0E00AEC4D4E4F78207B0070C2E8
:10025600EAB50A0040BCC0E01202C4D0F0D0E020EB
:100266000104C4C0E0C4B201C0F0120052D0F0D5FF
:10027600F0EB0200A3120FE501405301BA58011139
:100286004C010D4201BE4F01C64401C64901264339
:0802960001CC5501B04601B096
:10029E004501B047036C5001152D01192E013C2B61
:1002AE00011D23013A2003552A00D54800000134D0
:1002BE003F3F3F00790AA2D5200314300509B9103B
:1002CE00020404B9080104A2D5200602500104203C
:1002DE0002689202B509005034C0E07F2030031945
:1002EE007F30A20272067205500F12031BC202C2A9
:1002FE0006C205C2087F30800F300503E9C0E01248
:10030E000069300503D0E0F9D0E0B509CC3005170F
:10031E007F30B9100C1200697F583004077F788047
:10032E0003B908031200693002057F2D0200697FB0
:10033E00202008F87F2B2006F322920280CF286E11
:10034E00756C6C2900D2011200263001F8C20178BA
:10035E000930D50108F60200D52D50434958120038
:10036E00262403B405004001E49003679312005A5B
:0D037E00743A12005AD2037509040201BA44
:100F9800BB010CE58229F582E5833AF583E022500E
:100FA80006E92582F8E622BBFE06E92582F8E22258
:0D0FB800E58229F582E5833AF583E4932272
:100FC500F8E0FBA3A3E0F925F0F0E58215827002B5
:070FD5001583E0FA38F02259
:090FDC00EBF0A3EAF0A3E9F02216
:100FE500D083D082F8E4937012740193700DA3A39B
:100FF50093F8740193F5828883E4737402936860AF
:06100500EFA3A3A380DFAE
:1014FD00EFB40A07740D121508740A309811A899E3
:10150D00B8130CC2983098FDA899C298B811F6304E
:07151D0099FDC299F5992226
:00000001FF
